{
  "contractName": "Dex",
  "abi": [
    {
      "anonymous": false,
      "inputs": [
        {
          "indexed": true,
          "internalType": "address",
          "name": "previousOwner",
          "type": "address"
        },
        {
          "indexed": true,
          "internalType": "address",
          "name": "newOwner",
          "type": "address"
        }
      ],
      "name": "OwnershipTransferred",
      "type": "event"
    },
    {
      "inputs": [
        {
          "internalType": "uint256",
          "name": "",
          "type": "uint256"
        }
      ],
      "name": "TokenList",
      "outputs": [
        {
          "internalType": "bytes32",
          "name": "",
          "type": "bytes32"
        }
      ],
      "stateMutability": "view",
      "type": "function",
      "constant": true
    },
    {
      "inputs": [
        {
          "internalType": "bytes32",
          "name": "ticker",
          "type": "bytes32"
        },
        {
          "internalType": "address",
          "name": "tokenAddress",
          "type": "address"
        }
      ],
      "name": "addToken",
      "outputs": [],
      "stateMutability": "nonpayable",
      "type": "function"
    },
    {
      "inputs": [
        {
          "internalType": "address",
          "name": "",
          "type": "address"
        },
        {
          "internalType": "bytes32",
          "name": "",
          "type": "bytes32"
        }
      ],
      "name": "balances",
      "outputs": [
        {
          "internalType": "uint256",
          "name": "",
          "type": "uint256"
        }
      ],
      "stateMutability": "view",
      "type": "function",
      "constant": true
    },
    {
      "inputs": [
        {
          "internalType": "uint256",
          "name": "amount",
          "type": "uint256"
        },
        {
          "internalType": "bytes32",
          "name": "ticker",
          "type": "bytes32"
        }
      ],
      "name": "deposit",
      "outputs": [],
      "stateMutability": "nonpayable",
      "type": "function"
    },
    {
      "inputs": [],
      "name": "depositEth",
      "outputs": [],
      "stateMutability": "payable",
      "type": "function",
      "payable": true
    },
    {
      "inputs": [],
      "name": "nextOrderID",
      "outputs": [
        {
          "internalType": "uint256",
          "name": "",
          "type": "uint256"
        }
      ],
      "stateMutability": "view",
      "type": "function",
      "constant": true
    },
    {
      "inputs": [],
      "name": "owner",
      "outputs": [
        {
          "internalType": "address",
          "name": "",
          "type": "address"
        }
      ],
      "stateMutability": "view",
      "type": "function",
      "constant": true
    },
    {
      "inputs": [],
      "name": "renounceOwnership",
      "outputs": [],
      "stateMutability": "nonpayable",
      "type": "function"
    },
    {
      "inputs": [
        {
          "internalType": "bytes32",
          "name": "",
          "type": "bytes32"
        }
      ],
      "name": "tokenMapping",
      "outputs": [
        {
          "internalType": "bytes32",
          "name": "ticker",
          "type": "bytes32"
        },
        {
          "internalType": "address",
          "name": "tokenAddress",
          "type": "address"
        }
      ],
      "stateMutability": "view",
      "type": "function",
      "constant": true
    },
    {
      "inputs": [
        {
          "internalType": "address",
          "name": "newOwner",
          "type": "address"
        }
      ],
      "name": "transferOwnership",
      "outputs": [],
      "stateMutability": "nonpayable",
      "type": "function"
    },
    {
      "inputs": [
        {
          "internalType": "uint256",
          "name": "amount",
          "type": "uint256"
        },
        {
          "internalType": "bytes32",
          "name": "ticker",
          "type": "bytes32"
        }
      ],
      "name": "withdraw",
      "outputs": [],
      "stateMutability": "nonpayable",
      "type": "function"
    },
    {
      "inputs": [
        {
          "internalType": "uint256",
          "name": "amount",
          "type": "uint256"
        }
      ],
      "name": "withdrawEth",
      "outputs": [],
      "stateMutability": "nonpayable",
      "type": "function"
    },
    {
      "inputs": [],
      "name": "getTokenList",
      "outputs": [
        {
          "internalType": "uint256",
          "name": "",
          "type": "uint256"
        }
      ],
      "stateMutability": "view",
      "type": "function",
      "constant": true
    },
    {
      "inputs": [
        {
          "internalType": "bytes32",
          "name": "ticker",
          "type": "bytes32"
        },
        {
          "internalType": "enum Dex.Side",
          "name": "side",
          "type": "uint8"
        }
      ],
      "name": "getOrderBook",
      "outputs": [
        {
          "components": [
            {
              "internalType": "uint256",
              "name": "id",
              "type": "uint256"
            },
            {
              "internalType": "address",
              "name": "trader",
              "type": "address"
            },
            {
              "internalType": "enum Dex.Side",
              "name": "side",
              "type": "uint8"
            },
            {
              "internalType": "bytes32",
              "name": "ticker",
              "type": "bytes32"
            },
            {
              "internalType": "uint256",
              "name": "amount",
              "type": "uint256"
            },
            {
              "internalType": "uint256",
              "name": "price",
              "type": "uint256"
            },
            {
              "internalType": "uint256",
              "name": "filled",
              "type": "uint256"
            }
          ],
          "internalType": "struct Dex.Order[]",
          "name": "",
          "type": "tuple[]"
        }
      ],
      "stateMutability": "view",
      "type": "function",
      "constant": true
    },
    {
      "inputs": [
        {
          "internalType": "enum Dex.Side",
          "name": "side",
          "type": "uint8"
        },
        {
          "internalType": "bytes32",
          "name": "ticker",
          "type": "bytes32"
        },
        {
          "internalType": "uint256",
          "name": "amount",
          "type": "uint256"
        },
        {
          "internalType": "uint256",
          "name": "price",
          "type": "uint256"
        }
      ],
      "name": "createLimitOrder",
      "outputs": [],
      "stateMutability": "nonpayable",
      "type": "function"
    },
    {
      "inputs": [
        {
          "internalType": "enum Dex.Side",
          "name": "side",
          "type": "uint8"
        },
        {
          "internalType": "bytes32",
          "name": "ticker",
          "type": "bytes32"
        },
        {
          "internalType": "uint256",
          "name": "amount",
          "type": "uint256"
        }
      ],
      "name": "createMarketOrder",
      "outputs": [],
      "stateMutability": "nonpayable",
      "type": "function"
    }
  ],
  "bytecode": "0x608060405260006004553480156200001657600080fd5b50600062000029620000cd60201b60201c565b9050806000806101000a81548173ffffffffffffffffffffffffffffffffffffffff021916908373ffffffffffffffffffffffffffffffffffffffff1602179055508073ffffffffffffffffffffffffffffffffffffffff16600073ffffffffffffffffffffffffffffffffffffffff167f8be0079c531659141344cd1fd0a4f28419497f9722a3daafe3b4186f6b6457e060405160405180910390a350620000d5565b600033905090565b613fb980620000e56000396000f3fe6080604052600436106100f35760003560e01c80639776aacf1161008a578063c311d04911610059578063c311d04914610308578063c9630cb014610331578063f2fde38b1461035a578063f47a0acc14610383576100f3565b80639776aacf1461025057806399ec2f1c14610279578063a8d2021a146102a2578063ba58ea68146102cb576100f3565b8063667cb4ba116100c6578063667cb4ba146101a75780636f3b62f9146101e5578063715018a61461020e5780638da5cb5b14610225576100f3565b806303a53595146100f85780631f14df6914610135578063273cbaa014610172578063439370b11461019d575b600080fd5b34801561010457600080fd5b5061011f600480360381019061011a9190613699565b6103ae565b60405161012c9190613b43565b60405180910390f35b34801561014157600080fd5b5061015c600480360381019061015791906134e1565b6103d2565b6040516101699190613c67565b60405180910390f35b34801561017e57600080fd5b506101876103f7565b6040516101949190613c67565b60405180910390f35b6101a5610404565b005b3480156101b357600080fd5b506101ce60048036038101906101c99190613546565b6104fd565b6040516101dc929190613b5e565b60405180910390f35b3480156101f157600080fd5b5061020c60048036038101906102079190613636565b610541565b005b34801561021a57600080fd5b50610223611422565b005b34801561023157600080fd5b5061023a61155c565b6040516102479190613aa6565b60405180910390f35b34801561025c57600080fd5b506102776004803603810190610272919061356f565b611585565b005b34801561028557600080fd5b506102a0600480360381019061029b91906135e7565b6116c0565b005b3480156102ae57600080fd5b506102c960048036038101906102c491906136c2565b612992565b005b3480156102d757600080fd5b506102f260048036038101906102ed91906135ab565b612c4c565b6040516102ff9190613b21565b60405180910390f35b34801561031457600080fd5b5061032f600480360381019061032a9190613699565b612e17565b005b34801561033d57600080fd5b50610358600480360381019061035391906136c2565b61302d565b005b34801561036657600080fd5b50610381600480360381019061037c91906134b8565b613256565b005b34801561038f57600080fd5b506103986133ff565b6040516103a59190613c67565b60405180910390f35b600281815481106103be57600080fd5b906000526020600020016000915090505481565b6003602052816000526040600020602052806000526040600020600091509150505481565b6000600280549050905090565b61048734600360003373ffffffffffffffffffffffffffffffffffffffff1673ffffffffffffffffffffffffffffffffffffffff16815260200190815260200160002060007f455448000000000000000000000000000000000000000000000000000000000081526020019081526020016000205461340590919063ffffffff16565b600360003373ffffffffffffffffffffffffffffffffffffffff1673ffffffffffffffffffffffffffffffffffffffff16815260200190815260200160002060007f4554480000000000000000000000000000000000000000000000000000000000815260200190815260200160002081905550565b60016020528060005260406000206000915090508060000154908060010160009054906101000a900473ffffffffffffffffffffffffffffffffffffffff16905082565b6000600181111561057b577f4e487b7100000000000000000000000000000000000000000000000000000000600052602160045260246000fd5b8460018111156105b4577f4e487b7100000000000000000000000000000000000000000000000000000000600052602160045260246000fd5b141561064e576105cd818361341b90919063ffffffff16565b600360003373ffffffffffffffffffffffffffffffffffffffff1673ffffffffffffffffffffffffffffffffffffffff16815260200190815260200160002060007f4554480000000000000000000000000000000000000000000000000000000000815260200190815260200160002054101561064957600080fd5b610725565b600180811115610687577f4e487b7100000000000000000000000000000000000000000000000000000000600052602160045260246000fd5b8460018111156106c0577f4e487b7100000000000000000000000000000000000000000000000000000000600052602160045260246000fd5b14156107245781600360003373ffffffffffffffffffffffffffffffffffffffff1673ffffffffffffffffffffffffffffffffffffffff168152602001908152602001600020600085815260200190815260200160002054101561072357600080fd5b5b5b6000600560008581526020019081526020016000206000866001811115610775577f4e487b7100000000000000000000000000000000000000000000000000000000600052602160045260246000fd5b81526020019081526020016000209050806040518060e0016040528060045481526020013373ffffffffffffffffffffffffffffffffffffffff1681526020018760018111156107ee577f4e487b7100000000000000000000000000000000000000000000000000000000600052602160045260246000fd5b8152602001868152602001858152602001848152602001600081525090806001815401808255809150506001900390600052602060002090600602016000909190919091506000820151816000015560208201518160010160006101000a81548173ffffffffffffffffffffffffffffffffffffffff021916908373ffffffffffffffffffffffffffffffffffffffff16021790555060408201518160010160146101000a81548160ff021916908360018111156108d5577f4e487b7100000000000000000000000000000000000000000000000000000000600052602160045260246000fd5b0217905550606082015181600201556080820151816003015560a0820151816004015560c08201518160050155505060008082805490501161091857600061092a565b600182805490506109299190613d87565b5b905060006001811115610966577f4e487b7100000000000000000000000000000000000000000000000000000000600052602160045260246000fd5b86600181111561099f577f4e487b7100000000000000000000000000000000000000000000000000000000600052602160045260246000fd5b1415610e99575b6000811115610e94578181815481106109e8577f4e487b7100000000000000000000000000000000000000000000000000000000600052603260045260246000fd5b90600052602060002090600602016004015482600183610a089190613d87565b81548110610a3f577f4e487b7100000000000000000000000000000000000000000000000000000000600052603260045260246000fd5b9060005260206000209060060201600401541115610a5c57610e94565b600082600183610a6c9190613d87565b81548110610aa3577f4e487b7100000000000000000000000000000000000000000000000000000000600052603260045260246000fd5b90600052602060002090600602016040518060e0016040529081600082015481526020016001820160009054906101000a900473ffffffffffffffffffffffffffffffffffffffff1673ffffffffffffffffffffffffffffffffffffffff1673ffffffffffffffffffffffffffffffffffffffff1681526020016001820160149054906101000a900460ff166001811115610b67577f4e487b7100000000000000000000000000000000000000000000000000000000600052602160045260246000fd5b6001811115610b9f577f4e487b7100000000000000000000000000000000000000000000000000000000600052602160045260246000fd5b81526020016002820154815260200160038201548152602001600482015481526020016005820154815250509050828281548110610c06577f4e487b7100000000000000000000000000000000000000000000000000000000600052603260045260246000fd5b906000526020600020906006020183600184610c229190613d87565b81548110610c59577f4e487b7100000000000000000000000000000000000000000000000000000000600052603260045260246000fd5b9060005260206000209060060201600082015481600001556001820160009054906101000a900473ffffffffffffffffffffffffffffffffffffffff168160010160006101000a81548173ffffffffffffffffffffffffffffffffffffffff021916908373ffffffffffffffffffffffffffffffffffffffff1602179055506001820160149054906101000a900460ff168160010160146101000a81548160ff02191690836001811115610d36577f4e487b7100000000000000000000000000000000000000000000000000000000600052602160045260246000fd5b02179055506002820154816002015560038201548160030155600482015481600401556005820154816005015590505080838381548110610da0577f4e487b7100000000000000000000000000000000000000000000000000000000600052603260045260246000fd5b90600052602060002090600602016000820151816000015560208201518160010160006101000a81548173ffffffffffffffffffffffffffffffffffffffff021916908373ffffffffffffffffffffffffffffffffffffffff16021790555060408201518160010160146101000a81548160ff02191690836001811115610e50577f4e487b7100000000000000000000000000000000000000000000000000000000600052602160045260246000fd5b0217905550606082015181600201556080820151816003015560a0820151816004015560c082015181600501559050508180610e8b90613e32565b925050506109a6565b611402565b600180811115610ed2577f4e487b7100000000000000000000000000000000000000000000000000000000600052602160045260246000fd5b866001811115610f0b577f4e487b7100000000000000000000000000000000000000000000000000000000600052602160045260246000fd5b1415611401575b600081111561140057818181548110610f54577f4e487b7100000000000000000000000000000000000000000000000000000000600052603260045260246000fd5b90600052602060002090600602016004015482600183610f749190613d87565b81548110610fab577f4e487b7100000000000000000000000000000000000000000000000000000000600052603260045260246000fd5b9060005260206000209060060201600401541015610fc857611400565b600082600183610fd89190613d87565b8154811061100f577f4e487b7100000000000000000000000000000000000000000000000000000000600052603260045260246000fd5b90600052602060002090600602016040518060e0016040529081600082015481526020016001820160009054906101000a900473ffffffffffffffffffffffffffffffffffffffff1673ffffffffffffffffffffffffffffffffffffffff1673ffffffffffffffffffffffffffffffffffffffff1681526020016001820160149054906101000a900460ff1660018111156110d3577f4e487b7100000000000000000000000000000000000000000000000000000000600052602160045260246000fd5b600181111561110b577f4e487b7100000000000000000000000000000000000000000000000000000000600052602160045260246000fd5b81526020016002820154815260200160038201548152602001600482015481526020016005820154815250509050828281548110611172577f4e487b7100000000000000000000000000000000000000000000000000000000600052603260045260246000fd5b90600052602060002090600602018360018461118e9190613d87565b815481106111c5577f4e487b7100000000000000000000000000000000000000000000000000000000600052603260045260246000fd5b9060005260206000209060060201600082015481600001556001820160009054906101000a900473ffffffffffffffffffffffffffffffffffffffff168160010160006101000a81548173ffffffffffffffffffffffffffffffffffffffff021916908373ffffffffffffffffffffffffffffffffffffffff1602179055506001820160149054906101000a900460ff168160010160146101000a81548160ff021916908360018111156112a2577f4e487b7100000000000000000000000000000000000000000000000000000000600052602160045260246000fd5b0217905550600282015481600201556003820154816003015560048201548160040155600582015481600501559050508083838154811061130c577f4e487b7100000000000000000000000000000000000000000000000000000000600052603260045260246000fd5b90600052602060002090600602016000820151816000015560208201518160010160006101000a81548173ffffffffffffffffffffffffffffffffffffffff021916908373ffffffffffffffffffffffffffffffffffffffff16021790555060408201518160010160146101000a81548160ff021916908360018111156113bc577f4e487b7100000000000000000000000000000000000000000000000000000000600052602160045260246000fd5b0217905550606082015181600201556080820151816003015560a0820151816004015560c0820151816005015590505081806113f790613e32565b92505050610f12565b5b5b6004600081548092919061141590613e5c565b9190505550505050505050565b61142a613431565b73ffffffffffffffffffffffffffffffffffffffff1661144861155c565b73ffffffffffffffffffffffffffffffffffffffff161461149e576040517f08c379a000000000000000000000000000000000000000000000000000000000815260040161149590613be7565b60405180910390fd5b600073ffffffffffffffffffffffffffffffffffffffff1660008054906101000a900473ffffffffffffffffffffffffffffffffffffffff1673ffffffffffffffffffffffffffffffffffffffff167f8be0079c531659141344cd1fd0a4f28419497f9722a3daafe3b4186f6b6457e060405160405180910390a360008060006101000a81548173ffffffffffffffffffffffffffffffffffffffff021916908373ffffffffffffffffffffffffffffffffffffffff160217905550565b60008060009054906101000a900473ffffffffffffffffffffffffffffffffffffffff16905090565b61158d613431565b73ffffffffffffffffffffffffffffffffffffffff166115ab61155c565b73ffffffffffffffffffffffffffffffffffffffff1614611601576040517f08c379a00000000000000000000000000000000000000000000000000000000081526004016115f890613be7565b60405180910390fd5b60405180604001604052808381526020018273ffffffffffffffffffffffffffffffffffffffff16815250600160008481526020019081526020016000206000820151816000015560208201518160010160006101000a81548173ffffffffffffffffffffffffffffffffffffffff021916908373ffffffffffffffffffffffffffffffffffffffff16021790555090505060028290806001815401808255809150506001900390600052602060002001600090919091909150555050565b6001808111156116f9577f4e487b7100000000000000000000000000000000000000000000000000000000600052602160045260246000fd5b836001811115611732577f4e487b7100000000000000000000000000000000000000000000000000000000600052602160045260246000fd5b14156117cc5780600360003373ffffffffffffffffffffffffffffffffffffffff1673ffffffffffffffffffffffffffffffffffffffff16815260200190815260200160002060008481526020019081526020016000205410156117cb576040517f08c379a00000000000000000000000000000000000000000000000000000000081526004016117c290613c07565b60405180910390fd5b5b6000806001811115611807577f4e487b7100000000000000000000000000000000000000000000000000000000600052602160045260246000fd5b846001811115611840577f4e487b7100000000000000000000000000000000000000000000000000000000600052602160045260246000fd5b141561184f5760019050611854565b600090505b600060056000858152602001908152602001600020600083815260200190815260200160002090506000805b82805490508110801561189257508482105b1561265a5760006118ac838761343990919063ffffffff16565b905060006119578584815481106118ec577f4e487b7100000000000000000000000000000000000000000000000000000000600052603260045260246000fd5b906000526020600020906006020160050154868581548110611937577f4e487b7100000000000000000000000000000000000000000000000000000000600052603260045260246000fd5b90600052602060002090600602016003015461343990919063ffffffff16565b905060008282111561196b5782905061196f565b8190505b611982818661340590919063ffffffff16565b94506119e1818786815481106119c1577f4e487b7100000000000000000000000000000000000000000000000000000000600052603260045260246000fd5b90600052602060002090600602016005015461340590919063ffffffff16565b868581548110611a1a577f4e487b7100000000000000000000000000000000000000000000000000000000600052603260045260246000fd5b9060005260206000209060060201600501819055506000611a8e878681548110611a6d577f4e487b7100000000000000000000000000000000000000000000000000000000600052603260045260246000fd5b9060005260206000209060060201600401548361341b90919063ffffffff16565b905060006001811115611aca577f4e487b7100000000000000000000000000000000000000000000000000000000600052602160045260246000fd5b8b6001811115611b03577f4e487b7100000000000000000000000000000000000000000000000000000000600052602160045260246000fd5b14156120c55780600360003373ffffffffffffffffffffffffffffffffffffffff1673ffffffffffffffffffffffffffffffffffffffff16815260200190815260200160002060007f45544800000000000000000000000000000000000000000000000000000000008152602001908152602001600020541015611bbc576040517f08c379a0000000000000000000000000000000000000000000000000000000008152600401611bb390613c47565b60405180910390fd5b611c1f82600360003373ffffffffffffffffffffffffffffffffffffffff1673ffffffffffffffffffffffffffffffffffffffff16815260200190815260200160002060008d81526020019081526020016000205461340590919063ffffffff16565b600360003373ffffffffffffffffffffffffffffffffffffffff1673ffffffffffffffffffffffffffffffffffffffff16815260200190815260200160002060008c815260200190815260200160002081905550611cf681600360003373ffffffffffffffffffffffffffffffffffffffff1673ffffffffffffffffffffffffffffffffffffffff16815260200190815260200160002060007f455448000000000000000000000000000000000000000000000000000000000081526020019081526020016000205461343990919063ffffffff16565b600360003373ffffffffffffffffffffffffffffffffffffffff1673ffffffffffffffffffffffffffffffffffffffff16815260200190815260200160002060007f4554480000000000000000000000000000000000000000000000000000000000815260200190815260200160002081905550611e3782600360008a8981548110611dab577f4e487b7100000000000000000000000000000000000000000000000000000000600052603260045260246000fd5b906000526020600020906006020160010160009054906101000a900473ffffffffffffffffffffffffffffffffffffffff1673ffffffffffffffffffffffffffffffffffffffff1673ffffffffffffffffffffffffffffffffffffffff16815260200190815260200160002060008d81526020019081526020016000205461343990919063ffffffff16565b60036000898881548110611e74577f4e487b7100000000000000000000000000000000000000000000000000000000600052603260045260246000fd5b906000526020600020906006020160010160009054906101000a900473ffffffffffffffffffffffffffffffffffffffff1673ffffffffffffffffffffffffffffffffffffffff1673ffffffffffffffffffffffffffffffffffffffff16815260200190815260200160002060008c815260200190815260200160002081905550611fe281600360008a8981548110611f36577f4e487b7100000000000000000000000000000000000000000000000000000000600052603260045260246000fd5b906000526020600020906006020160010160009054906101000a900473ffffffffffffffffffffffffffffffffffffffff1673ffffffffffffffffffffffffffffffffffffffff1673ffffffffffffffffffffffffffffffffffffffff16815260200190815260200160002060007f455448000000000000000000000000000000000000000000000000000000000081526020019081526020016000205461340590919063ffffffff16565b6003600089888154811061201f577f4e487b7100000000000000000000000000000000000000000000000000000000600052603260045260246000fd5b906000526020600020906006020160010160009054906101000a900473ffffffffffffffffffffffffffffffffffffffff1673ffffffffffffffffffffffffffffffffffffffff1673ffffffffffffffffffffffffffffffffffffffff16815260200190815260200160002060007f4554480000000000000000000000000000000000000000000000000000000000815260200190815260200160002081905550612643565b6001808111156120fe577f4e487b7100000000000000000000000000000000000000000000000000000000600052602160045260246000fd5b8b6001811115612137577f4e487b7100000000000000000000000000000000000000000000000000000000600052602160045260246000fd5b1415612642576121a082600360003373ffffffffffffffffffffffffffffffffffffffff1673ffffffffffffffffffffffffffffffffffffffff16815260200190815260200160002060008d81526020019081526020016000205461343990919063ffffffff16565b600360003373ffffffffffffffffffffffffffffffffffffffff1673ffffffffffffffffffffffffffffffffffffffff16815260200190815260200160002060008c81526020019081526020016000208190555061227781600360003373ffffffffffffffffffffffffffffffffffffffff1673ffffffffffffffffffffffffffffffffffffffff16815260200190815260200160002060007f455448000000000000000000000000000000000000000000000000000000000081526020019081526020016000205461340590919063ffffffff16565b600360003373ffffffffffffffffffffffffffffffffffffffff1673ffffffffffffffffffffffffffffffffffffffff16815260200190815260200160002060007f45544800000000000000000000000000000000000000000000000000000000008152602001908152602001600020819055506123b882600360008a898154811061232c577f4e487b7100000000000000000000000000000000000000000000000000000000600052603260045260246000fd5b906000526020600020906006020160010160009054906101000a900473ffffffffffffffffffffffffffffffffffffffff1673ffffffffffffffffffffffffffffffffffffffff1673ffffffffffffffffffffffffffffffffffffffff16815260200190815260200160002060008d81526020019081526020016000205461340590919063ffffffff16565b600360008988815481106123f5577f4e487b7100000000000000000000000000000000000000000000000000000000600052603260045260246000fd5b906000526020600020906006020160010160009054906101000a900473ffffffffffffffffffffffffffffffffffffffff1673ffffffffffffffffffffffffffffffffffffffff1673ffffffffffffffffffffffffffffffffffffffff16815260200190815260200160002060008c81526020019081526020016000208190555061256381600360008a89815481106124b7577f4e487b7100000000000000000000000000000000000000000000000000000000600052603260045260246000fd5b906000526020600020906006020160010160009054906101000a900473ffffffffffffffffffffffffffffffffffffffff1673ffffffffffffffffffffffffffffffffffffffff1673ffffffffffffffffffffffffffffffffffffffff16815260200190815260200160002060007f455448000000000000000000000000000000000000000000000000000000000081526020019081526020016000205461343990919063ffffffff16565b600360008988815481106125a0577f4e487b7100000000000000000000000000000000000000000000000000000000600052603260045260246000fd5b906000526020600020906006020160010160009054906101000a900473ffffffffffffffffffffffffffffffffffffffff1673ffffffffffffffffffffffffffffffffffffffff1673ffffffffffffffffffffffffffffffffffffffff16815260200190815260200160002060007f45544800000000000000000000000000000000000000000000000000000000008152602001908152602001600020819055505b5b50505050808061265290613e5c565b915050611880565b505b600082805490501180156127055750816000815481106126a5577f4e487b7100000000000000000000000000000000000000000000000000000000600052603260045260246000fd5b906000526020600020906006020160030154826000815481106126f1577f4e487b7100000000000000000000000000000000000000000000000000000000600052603260045260246000fd5b906000526020600020906006020160050154145b1561298a5760005b6001838054905061271e9190613d87565b8110156128d157826001826127339190613cd7565b8154811061276a577f4e487b7100000000000000000000000000000000000000000000000000000000600052603260045260246000fd5b90600052602060002090600602018382815481106127b1577f4e487b7100000000000000000000000000000000000000000000000000000000600052603260045260246000fd5b9060005260206000209060060201600082015481600001556001820160009054906101000a900473ffffffffffffffffffffffffffffffffffffffff168160010160006101000a81548173ffffffffffffffffffffffffffffffffffffffff021916908373ffffffffffffffffffffffffffffffffffffffff1602179055506001820160149054906101000a900460ff168160010160146101000a81548160ff0219169083600181111561288e577f4e487b7100000000000000000000000000000000000000000000000000000000600052602160045260246000fd5b02179055506002820154816002015560038201548160030155600482015481600401556005820154816005015590505080806128c990613e5c565b91505061270d565b5081805480612909577f4e487b7100000000000000000000000000000000000000000000000000000000600052603160045260246000fd5b60019003818190600052602060002090600602016000808201600090556001820160006101000a81549073ffffffffffffffffffffffffffffffffffffffff02191690556001820160146101000a81549060ff021916905560028201600090556003820160009055600482016000905560058201600090555050905561265c565b505050505050565b80600073ffffffffffffffffffffffffffffffffffffffff166001600083815260200190815260200160002060010160009054906101000a900473ffffffffffffffffffffffffffffffffffffffff1673ffffffffffffffffffffffffffffffffffffffff161415612a39576040517f08c379a0000000000000000000000000000000000000000000000000000000008152600401612a3090613bc7565b60405180910390fd5b82600360003373ffffffffffffffffffffffffffffffffffffffff1673ffffffffffffffffffffffffffffffffffffffff1681526020019081526020016000206000848152602001908152602001600020541015612acc576040517f08c379a0000000000000000000000000000000000000000000000000000000008152600401612ac390613c27565b60405180910390fd5b612b2f83600360003373ffffffffffffffffffffffffffffffffffffffff1673ffffffffffffffffffffffffffffffffffffffff16815260200190815260200160002060008581526020019081526020016000205461343990919063ffffffff16565b600360003373ffffffffffffffffffffffffffffffffffffffff1673ffffffffffffffffffffffffffffffffffffffff1681526020019081526020016000206000848152602001908152602001600020819055506001600083815260200190815260200160002060010160009054906101000a900473ffffffffffffffffffffffffffffffffffffffff1673ffffffffffffffffffffffffffffffffffffffff1663a9059cbb33856040518363ffffffff1660e01b8152600401612bf4929190613af8565b602060405180830381600087803b158015612c0e57600080fd5b505af1158015612c22573d6000803e3d6000fd5b505050506040513d601f19601f82011682018060405250810190612c46919061351d565b50505050565b6060600560008481526020019081526020016000206000836001811115612c9c577f4e487b7100000000000000000000000000000000000000000000000000000000600052602160045260246000fd5b8152602001908152602001600020805480602002602001604051908101604052809291908181526020016000905b82821015612e0b57838290600052602060002090600602016040518060e0016040529081600082015481526020016001820160009054906101000a900473ffffffffffffffffffffffffffffffffffffffff1673ffffffffffffffffffffffffffffffffffffffff1673ffffffffffffffffffffffffffffffffffffffff1681526020016001820160149054906101000a900460ff166001811115612d98577f4e487b7100000000000000000000000000000000000000000000000000000000600052602160045260246000fd5b6001811115612dd0577f4e487b7100000000000000000000000000000000000000000000000000000000600052602160045260246000fd5b815260200160028201548152602001600382015481526020016004820154815260200160058201548152505081526020019060010190612cca565b50505050905092915050565b80600360003373ffffffffffffffffffffffffffffffffffffffff1673ffffffffffffffffffffffffffffffffffffffff16815260200190815260200160002060007f45544800000000000000000000000000000000000000000000000000000000008152602001908152602001600020541015612eca576040517f08c379a0000000000000000000000000000000000000000000000000000000008152600401612ec190613ba7565b60405180910390fd5b612f4d81600360003373ffffffffffffffffffffffffffffffffffffffff1673ffffffffffffffffffffffffffffffffffffffff16815260200190815260200160002060007f455448000000000000000000000000000000000000000000000000000000000081526020019081526020016000205461343990919063ffffffff16565b600360003373ffffffffffffffffffffffffffffffffffffffff1673ffffffffffffffffffffffffffffffffffffffff16815260200190815260200160002060007f45544800000000000000000000000000000000000000000000000000000000008152602001908152602001600020819055503373ffffffffffffffffffffffffffffffffffffffff1681604051612fe590613a91565b60006040518083038185875af1925050503d8060008114613022576040519150601f19603f3d011682016040523d82523d6000602084013e613027565b606091505b50505050565b80600073ffffffffffffffffffffffffffffffffffffffff166001600083815260200190815260200160002060010160009054906101000a900473ffffffffffffffffffffffffffffffffffffffff1673ffffffffffffffffffffffffffffffffffffffff1614156130d4576040517f08c379a00000000000000000000000000000000000000000000000000000000081526004016130cb90613bc7565b60405180910390fd5b6001600083815260200190815260200160002060010160009054906101000a900473ffffffffffffffffffffffffffffffffffffffff1673ffffffffffffffffffffffffffffffffffffffff166323b872dd3330866040518463ffffffff1660e01b815260040161314793929190613ac1565b602060405180830381600087803b15801561316157600080fd5b505af1158015613175573d6000803e3d6000fd5b505050506040513d601f19601f82011682018060405250810190613199919061351d565b506131fd83600360003373ffffffffffffffffffffffffffffffffffffffff1673ffffffffffffffffffffffffffffffffffffffff16815260200190815260200160002060008581526020019081526020016000205461340590919063ffffffff16565b600360003373ffffffffffffffffffffffffffffffffffffffff1673ffffffffffffffffffffffffffffffffffffffff168152602001908152602001600020600084815260200190815260200160002081905550505050565b61325e613431565b73ffffffffffffffffffffffffffffffffffffffff1661327c61155c565b73ffffffffffffffffffffffffffffffffffffffff16146132d2576040517f08c379a00000000000000000000000000000000000000000000000000000000081526004016132c990613be7565b60405180910390fd5b600073ffffffffffffffffffffffffffffffffffffffff168173ffffffffffffffffffffffffffffffffffffffff161415613342576040517f08c379a000000000000000000000000000000000000000000000000000000000815260040161333990613b87565b60405180910390fd5b8073ffffffffffffffffffffffffffffffffffffffff1660008054906101000a900473ffffffffffffffffffffffffffffffffffffffff1673ffffffffffffffffffffffffffffffffffffffff167f8be0079c531659141344cd1fd0a4f28419497f9722a3daafe3b4186f6b6457e060405160405180910390a3806000806101000a81548173ffffffffffffffffffffffffffffffffffffffff021916908373ffffffffffffffffffffffffffffffffffffffff16021790555050565b60045481565b600081836134139190613cd7565b905092915050565b600081836134299190613d2d565b905092915050565b600033905090565b600081836134479190613d87565b905092915050565b60008135905061345e81613f17565b92915050565b60008151905061347381613f2e565b92915050565b60008135905061348881613f45565b92915050565b60008135905061349d81613f5c565b92915050565b6000813590506134b281613f6c565b92915050565b6000602082840312156134ca57600080fd5b60006134d88482850161344f565b91505092915050565b600080604083850312156134f457600080fd5b60006135028582860161344f565b925050602061351385828601613479565b9150509250929050565b60006020828403121561352f57600080fd5b600061353d84828501613464565b91505092915050565b60006020828403121561355857600080fd5b600061356684828501613479565b91505092915050565b6000806040838503121561358257600080fd5b600061359085828601613479565b92505060206135a18582860161344f565b9150509250929050565b600080604083850312156135be57600080fd5b60006135cc85828601613479565b92505060206135dd8582860161348e565b9150509250929050565b6000806000606084860312156135fc57600080fd5b600061360a8682870161348e565b935050602061361b86828701613479565b925050604061362c868287016134a3565b9150509250925092565b6000806000806080858703121561364c57600080fd5b600061365a8782880161348e565b945050602061366b87828801613479565b935050604061367c878288016134a3565b925050606061368d878288016134a3565b91505092959194509250565b6000602082840312156136ab57600080fd5b60006136b9848285016134a3565b91505092915050565b600080604083850312156136d557600080fd5b60006136e3858286016134a3565b92505060206136f485828601613479565b9150509250929050565b600061370a83836139e5565b60e08301905092915050565b61371f81613dbb565b82525050565b61372e81613dbb565b82525050565b600061373f82613c92565b6137498185613caa565b935061375483613c82565b8060005b8381101561378557815161376c88826136fe565b975061377783613c9d565b925050600181019050613758565b5085935050505092915050565b61379b81613dd9565b82525050565b6137aa81613dd9565b82525050565b6137b981613e20565b82525050565b60006137cc602683613cc6565b91507f4f776e61626c653a206e6577206f776e657220697320746865207a65726f206160008301527f64647265737300000000000000000000000000000000000000000000000000006020830152604082019050919050565b6000613832601283613cc6565b91507f496e7375666669656e742062616c616e636500000000000000000000000000006000830152602082019050919050565b6000613872601483613cc6565b91507f546f6b656e20646f6573206e6f742065786973740000000000000000000000006000830152602082019050919050565b60006138b2602083613cc6565b91507f4f776e61626c653a2063616c6c6572206973206e6f7420746865206f776e65726000830152602082019050919050565b60006138f2601483613cc6565b91507f696e73756666696369656e742062616c616e63650000000000000000000000006000830152602082019050919050565b6000613932601683613cc6565b91507f42616c616e6365206e6f742073756666696369656e74000000000000000000006000830152602082019050919050565b6000613972600083613cbb565b9150600082019050919050565b600061398c602983613cc6565b91507f596f7520646f206e6f74206861766520656e6f7567682045544820746f20636f60008301527f76657220747261646500000000000000000000000000000000000000000000006020830152604082019050919050565b60e0820160008201516139fb6000850182613a73565b506020820151613a0e6020850182613716565b506040820151613a2160408501826137b0565b506060820151613a346060850182613792565b506080820151613a476080850182613a73565b5060a0820151613a5a60a0850182613a73565b5060c0820151613a6d60c0850182613a73565b50505050565b613a7c81613e16565b82525050565b613a8b81613e16565b82525050565b6000613a9c82613965565b9150819050919050565b6000602082019050613abb6000830184613725565b92915050565b6000606082019050613ad66000830186613725565b613ae36020830185613725565b613af06040830184613a82565b949350505050565b6000604082019050613b0d6000830185613725565b613b1a6020830184613a82565b9392505050565b60006020820190508181036000830152613b3b8184613734565b905092915050565b6000602082019050613b5860008301846137a1565b92915050565b6000604082019050613b7360008301856137a1565b613b806020830184613725565b9392505050565b60006020820190508181036000830152613ba0816137bf565b9050919050565b60006020820190508181036000830152613bc081613825565b9050919050565b60006020820190508181036000830152613be081613865565b9050919050565b60006020820190508181036000830152613c00816138a5565b9050919050565b60006020820190508181036000830152613c20816138e5565b9050919050565b60006020820190508181036000830152613c4081613925565b9050919050565b60006020820190508181036000830152613c608161397f565b9050919050565b6000602082019050613c7c6000830184613a82565b92915050565b6000819050602082019050919050565b600081519050919050565b6000602082019050919050565b600082825260208201905092915050565b600081905092915050565b600082825260208201905092915050565b6000613ce282613e16565b9150613ced83613e16565b9250827fffffffffffffffffffffffffffffffffffffffffffffffffffffffffffffffff03821115613d2257613d21613ea5565b5b828201905092915050565b6000613d3882613e16565b9150613d4383613e16565b9250817fffffffffffffffffffffffffffffffffffffffffffffffffffffffffffffffff0483118215151615613d7c57613d7b613ea5565b5b828202905092915050565b6000613d9282613e16565b9150613d9d83613e16565b925082821015613db057613daf613ea5565b5b828203905092915050565b6000613dc682613df6565b9050919050565b60008115159050919050565b6000819050919050565b6000819050613df182613f03565b919050565b600073ffffffffffffffffffffffffffffffffffffffff82169050919050565b6000819050919050565b6000613e2b82613de3565b9050919050565b6000613e3d82613e16565b91506000821415613e5157613e50613ea5565b5b600182039050919050565b6000613e6782613e16565b91507fffffffffffffffffffffffffffffffffffffffffffffffffffffffffffffffff821415613e9a57613e99613ea5565b5b600182019050919050565b7f4e487b7100000000000000000000000000000000000000000000000000000000600052601160045260246000fd5b7f4e487b7100000000000000000000000000000000000000000000000000000000600052602160045260246000fd5b60028110613f1457613f13613ed4565b5b50565b613f2081613dbb565b8114613f2b57600080fd5b50565b613f3781613dcd565b8114613f4257600080fd5b50565b613f4e81613dd9565b8114613f5957600080fd5b50565b60028110613f6957600080fd5b50565b613f7581613e16565b8114613f8057600080fd5b5056fea2646970667358221220760e458e6b6c87fcfac1cda620ac182a70582c389b18e5a40d27c08857acad1964736f6c63430008000033",
  "immutableReferences": {},
  "source": "pragma solidity ^0.8.0;\npragma experimental ABIEncoderV2;\n\nimport \"../contracts/wallet.sol\";\n\ncontract Dex is Wallet {\nusing SafeMath for uint256;\n    \n    enum Side {\n        Buy, //0\n        Sell //1\n    }\n\n    //order.side = Side.Buy\n  \n\n    struct Order {\n        uint id;\n        address trader;\n        Side side;\n        bytes32 ticker;\n        uint amount;\n        uint price; //limit orders\n        uint filled;\n    }\n\n    uint public nextOrderID = 0;\n\n    mapping(bytes32 => mapping(uint => Order[])) orderBook;\n\n    function getTokenList() public view returns(uint256){\n        return TokenList.length;\n    }\n\n    function getOrderBook(bytes32 ticker, Side side) view public returns(Order[] memory){\n        return orderBook[ticker][uint(side)];\n    }\n\n    function createLimitOrder( Side side, bytes32 ticker, uint amount, uint price) public {\n\n        if(side == Side.Buy){\n            require(balances[msg.sender][\"ETH\"] >= amount.mul(price));\n        }\n        else if(side == Side.Sell){\n            require(balances[msg.sender][ticker] >= amount);\n        }\n        Order[] storage orders = orderBook[ticker][uint(side)];\n        orders.push( Order(nextOrderID, msg.sender, side, ticker, amount, price, 0) );\n\n        //Bubble Loop Algorithm to sort Buy and Sell orders\n        uint i = orders.length > 0 ? orders.length -1 : 0;\n\n        if(side == Side.Buy){\n           while(i > 0){\n               if(orders[i-1].price > orders[i].price){\n                   break;\n               }\n               Order memory orderToMove = orders[i-1];\n               orders[i - 1] = orders[i];\n               orders[i] = orderToMove;\n               i--;\n           }\n        }\n\n        else if(side == Side.Sell){\n            while(i > 0){\n               if(orders[i - 1].price < orders[i].price){\n                   break;\n               }\n               Order memory orderToMove = orders[i-1];\n               orders[i - 1] = orders[i];\n               orders[i] = orderToMove;\n               i--;\n           }\n        }\n        nextOrderID++;\n}\n\n     function createMarketOrder( Side side, bytes32 ticker, uint amount)public {\n         if(side == Side.Sell){\n            require(balances[msg.sender][ticker] >= amount, \"insufficient balance\");\n         }\n        \n        uint orderBookSide;\n        if(side == Side.Buy){\n            orderBookSide = 1;\n        }else{\n            orderBookSide = 0;\n        }\n\n        Order[] storage orders = orderBook[ticker][orderBookSide];\n\n        uint totalFilled = 0;\n\n        //this loop will take us into the orderbook\n        for(uint i = 0; i < orders.length && totalFilled < amount; i++){\n            //how many existing orders can we fill with our new market order\n            uint leftToFill = amount.sub(totalFilled);//amount minus totalFilled\n            uint availableToFill = orders[i].amount.sub(orders[i].filled); // how much is available in this current order\n            uint filled = 0;\n            if( availableToFill > leftToFill  ){\n                filled = leftToFill; // fill the entire market order\n            }else{\n                filled = availableToFill; // fill whats available in order[i]\n            }\n            totalFilled = totalFilled.add(filled);//update totalFilled\n            orders[i].filled = orders[i].filled.add(filled);\n            uint cost = filled.mul(orders[i].price);\n\n            if(side == Side.Buy){\n                //verfiy the buyer has enough eth to cover trade\n                require(balances[msg.sender][\"ETH\"] >= cost, \"You do not have enough ETH to cover trade\");\n                //transfer Eth from buyer to seller\n                balances[msg.sender][ticker] = balances[msg.sender][ticker].add(filled);\n                balances[msg.sender][\"ETH\"] = balances[msg.sender][\"ETH\"].sub(cost);\n                //transfer tokens from seller to buyer\n                balances[orders[i].trader][ticker] = balances[orders[i].trader][ticker].sub(filled);\n                balances[orders[i].trader][\"ETH\"] = balances[orders[i].trader][\"ETH\"].add(cost);\n\n            }else if(side == Side.Sell){\n                //execute the trade\n                balances[msg.sender][ticker] = balances[msg.sender][ticker].sub(filled);\n                balances[msg.sender][\"ETH\"] = balances[msg.sender][\"ETH\"].add(cost);\n    \n                balances[orders[i].trader][ticker] = balances[orders[i].trader][ticker].add(filled);\n                balances[orders[i].trader][\"ETH\"] = balances[orders[i].trader][\"ETH\"].sub(cost);\n            }            \n\n        }\n\n            //Loop through order book and remove 100% filled orders\n            while( orders.length > 0 && orders[0].filled == orders[0].amount ){\n                //removing the top element by overwriting every element with the next element in the list\n                for(uint i = 0; i < orders.length -1; i++){\n                    orders[i] = orders[i +1];\n                }\n                orders.pop();\n        }\n     }\n\n}",
  "sourcePath": "/Users/OllieFrancis/Documents/Ethereum/DexDApp/contracts/dex.sol",
  "compiler": {
    "name": "solc",
    "version": "0.8.0+commit.c7dfd78e.Emscripten.clang"
  },
  "schemaVersion": "3.3.4",
  "updatedAt": "2021-07-30T11:42:52.556Z",
  "networkType": "ethereum",
  "devdoc": {
    "kind": "dev",
    "methods": {
      "owner()": {
        "details": "Returns the address of the current owner."
      },
      "renounceOwnership()": {
        "details": "Leaves the contract without owner. It will not be possible to call `onlyOwner` functions anymore. Can only be called by the current owner. NOTE: Renouncing ownership will leave the contract without an owner, thereby removing any functionality that is only available to the owner."
      },
      "transferOwnership(address)": {
        "details": "Transfers ownership of the contract to a new account (`newOwner`). Can only be called by the current owner."
      }
    },
    "version": 1
  },
  "userdoc": {
    "kind": "user",
    "methods": {},
    "version": 1
  }
}