{
  "contractName": "Dex",
  "abi": [
    {
      "anonymous": false,
      "inputs": [
        {
          "indexed": true,
          "internalType": "address",
          "name": "previousOwner",
          "type": "address"
        },
        {
          "indexed": true,
          "internalType": "address",
          "name": "newOwner",
          "type": "address"
        }
      ],
      "name": "OwnershipTransferred",
      "type": "event"
    },
    {
      "inputs": [
        {
          "internalType": "uint256",
          "name": "",
          "type": "uint256"
        }
      ],
      "name": "TokenList",
      "outputs": [
        {
          "internalType": "bytes32",
          "name": "",
          "type": "bytes32"
        }
      ],
      "stateMutability": "view",
      "type": "function",
      "constant": true
    },
    {
      "inputs": [
        {
          "internalType": "bytes32",
          "name": "ticker",
          "type": "bytes32"
        },
        {
          "internalType": "address",
          "name": "tokenAddress",
          "type": "address"
        }
      ],
      "name": "addToken",
      "outputs": [],
      "stateMutability": "nonpayable",
      "type": "function"
    },
    {
      "inputs": [
        {
          "internalType": "address",
          "name": "",
          "type": "address"
        },
        {
          "internalType": "bytes32",
          "name": "",
          "type": "bytes32"
        }
      ],
      "name": "balances",
      "outputs": [
        {
          "internalType": "uint256",
          "name": "",
          "type": "uint256"
        }
      ],
      "stateMutability": "view",
      "type": "function",
      "constant": true
    },
    {
      "inputs": [
        {
          "internalType": "uint256",
          "name": "amount",
          "type": "uint256"
        },
        {
          "internalType": "bytes32",
          "name": "ticker",
          "type": "bytes32"
        }
      ],
      "name": "deposit",
      "outputs": [],
      "stateMutability": "nonpayable",
      "type": "function"
    },
    {
      "inputs": [],
      "name": "depositEth",
      "outputs": [],
      "stateMutability": "payable",
      "type": "function",
      "payable": true
    },
    {
      "inputs": [],
      "name": "nextOrderID",
      "outputs": [
        {
          "internalType": "uint256",
          "name": "",
          "type": "uint256"
        }
      ],
      "stateMutability": "view",
      "type": "function",
      "constant": true
    },
    {
      "inputs": [],
      "name": "owner",
      "outputs": [
        {
          "internalType": "address",
          "name": "",
          "type": "address"
        }
      ],
      "stateMutability": "view",
      "type": "function",
      "constant": true
    },
    {
      "inputs": [],
      "name": "renounceOwnership",
      "outputs": [],
      "stateMutability": "nonpayable",
      "type": "function"
    },
    {
      "inputs": [
        {
          "internalType": "bytes32",
          "name": "",
          "type": "bytes32"
        }
      ],
      "name": "tokenMapping",
      "outputs": [
        {
          "internalType": "bytes32",
          "name": "ticker",
          "type": "bytes32"
        },
        {
          "internalType": "address",
          "name": "tokenAddress",
          "type": "address"
        }
      ],
      "stateMutability": "view",
      "type": "function",
      "constant": true
    },
    {
      "inputs": [
        {
          "internalType": "address",
          "name": "newOwner",
          "type": "address"
        }
      ],
      "name": "transferOwnership",
      "outputs": [],
      "stateMutability": "nonpayable",
      "type": "function"
    },
    {
      "inputs": [
        {
          "internalType": "uint256",
          "name": "amount",
          "type": "uint256"
        },
        {
          "internalType": "bytes32",
          "name": "ticker",
          "type": "bytes32"
        }
      ],
      "name": "withdraw",
      "outputs": [],
      "stateMutability": "nonpayable",
      "type": "function"
    },
    {
      "inputs": [
        {
          "internalType": "uint256",
          "name": "amount",
          "type": "uint256"
        }
      ],
      "name": "withdrawEth",
      "outputs": [],
      "stateMutability": "nonpayable",
      "type": "function"
    },
    {
      "inputs": [],
      "name": "getTokenList",
      "outputs": [
        {
          "internalType": "uint256",
          "name": "",
          "type": "uint256"
        }
      ],
      "stateMutability": "view",
      "type": "function",
      "constant": true
    },
    {
      "inputs": [
        {
          "internalType": "bytes32",
          "name": "ticker",
          "type": "bytes32"
        },
        {
          "internalType": "enum Dex.Side",
          "name": "side",
          "type": "uint8"
        }
      ],
      "name": "getOrderBook",
      "outputs": [
        {
          "components": [
            {
              "internalType": "uint256",
              "name": "id",
              "type": "uint256"
            },
            {
              "internalType": "address",
              "name": "trader",
              "type": "address"
            },
            {
              "internalType": "enum Dex.Side",
              "name": "side",
              "type": "uint8"
            },
            {
              "internalType": "bytes32",
              "name": "ticker",
              "type": "bytes32"
            },
            {
              "internalType": "uint256",
              "name": "amount",
              "type": "uint256"
            },
            {
              "internalType": "uint256",
              "name": "price",
              "type": "uint256"
            },
            {
              "internalType": "uint256",
              "name": "filled",
              "type": "uint256"
            }
          ],
          "internalType": "struct Dex.Order[]",
          "name": "",
          "type": "tuple[]"
        }
      ],
      "stateMutability": "view",
      "type": "function",
      "constant": true
    },
    {
      "inputs": [
        {
          "internalType": "enum Dex.Side",
          "name": "side",
          "type": "uint8"
        },
        {
          "internalType": "bytes32",
          "name": "ticker",
          "type": "bytes32"
        },
        {
          "internalType": "uint256",
          "name": "amount",
          "type": "uint256"
        },
        {
          "internalType": "uint256",
          "name": "price",
          "type": "uint256"
        }
      ],
      "name": "createLimitOrder",
      "outputs": [],
      "stateMutability": "nonpayable",
      "type": "function"
    },
    {
      "inputs": [
        {
          "internalType": "enum Dex.Side",
          "name": "side",
          "type": "uint8"
        },
        {
          "internalType": "bytes32",
          "name": "ticker",
          "type": "bytes32"
        },
        {
          "internalType": "uint256",
          "name": "amount",
          "type": "uint256"
        }
      ],
      "name": "createMarketOrder",
      "outputs": [],
      "stateMutability": "nonpayable",
      "type": "function"
    }
  ],
  "bytecode": "0x608060405260006004553480156200001657600080fd5b50620000376200002b6200003d60201b60201c565b6200004560201b60201c565b62000109565b600033905090565b60008060009054906101000a900473ffffffffffffffffffffffffffffffffffffffff169050816000806101000a81548173ffffffffffffffffffffffffffffffffffffffff021916908373ffffffffffffffffffffffffffffffffffffffff1602179055508173ffffffffffffffffffffffffffffffffffffffff168173ffffffffffffffffffffffffffffffffffffffff167f8be0079c531659141344cd1fd0a4f28419497f9722a3daafe3b4186f6b6457e060405160405180910390a35050565b6137cc80620001196000396000f3fe6080604052600436106100f35760003560e01c80639776aacf1161008a578063c311d04911610059578063c311d04914610308578063c9630cb014610331578063f2fde38b1461035a578063f47a0acc14610383576100f3565b80639776aacf1461025057806399ec2f1c14610279578063a8d2021a146102a2578063ba58ea68146102cb576100f3565b8063667cb4ba116100c6578063667cb4ba146101a75780636f3b62f9146101e5578063715018a61461020e5780638da5cb5b14610225576100f3565b806303a53595146100f85780631f14df6914610135578063273cbaa014610172578063439370b11461019d575b600080fd5b34801561010457600080fd5b5061011f600480360381019061011a9190612d4f565b6103ae565b60405161012c9190613116565b60405180910390f35b34801561014157600080fd5b5061015c60048036038101906101579190612b7b565b6103d2565b604051610169919061325a565b60405180910390f35b34801561017e57600080fd5b506101876103f7565b604051610194919061325a565b60405180910390f35b6101a5610404565b005b3480156101b357600080fd5b506101ce60048036038101906101c99190612be8565b610540565b6040516101dc929190613131565b60405180910390f35b3480156101f157600080fd5b5061020c60048036038101906102079190612ce8565b610584565b005b34801561021a57600080fd5b50610223610fcb565b005b34801561023157600080fd5b5061023a611053565b6040516102479190613079565b60405180910390f35b34801561025c57600080fd5b5061027760048036038101906102729190612c15565b61107c565b005b34801561028557600080fd5b506102a0600480360381019061029b9190612c95565b6111b7565b005b3480156102ae57600080fd5b506102c960048036038101906102c49190612d7c565b612087565b005b3480156102d757600080fd5b506102f260048036038101906102ed9190612c55565b612341565b6040516102ff91906130f4565b60405180910390f35b34801561031457600080fd5b5061032f600480360381019061032a9190612d4f565b61249a565b005b34801561033d57600080fd5b5061035860048036038101906103539190612d7c565b6126b0565b005b34801561036657600080fd5b50610381600480360381019061037c9190612b4e565b6128d9565b005b34801561038f57600080fd5b506103986129d1565b6040516103a5919061325a565b60405180910390f35b600281815481106103be57600080fd5b906000526020600020016000915090505481565b6003602052816000526040600020602052806000526040600020600091509150505481565b6000600280549050905090565b60003411610447576040517f08c379a000000000000000000000000000000000000000000000000000000000815260040161043e9061317a565b60405180910390fd5b6104ca34600360003373ffffffffffffffffffffffffffffffffffffffff1673ffffffffffffffffffffffffffffffffffffffff16815260200190815260200160002060007f45544800000000000000000000000000000000000000000000000000000000008152602001908152602001600020546129d790919063ffffffff16565b600360003373ffffffffffffffffffffffffffffffffffffffff1673ffffffffffffffffffffffffffffffffffffffff16815260200190815260200160002060007f4554480000000000000000000000000000000000000000000000000000000000815260200190815260200160002081905550565b60016020528060005260406000206000915090508060000154908060010160009054906101000a900473ffffffffffffffffffffffffffffffffffffffff16905082565b60006001811115610598576105976134c7565b5b8460018111156105ab576105aa6134c7565b5b1415610645576105c481836129ed90919063ffffffff16565b600360003373ffffffffffffffffffffffffffffffffffffffff1673ffffffffffffffffffffffffffffffffffffffff16815260200190815260200160002060007f4554480000000000000000000000000000000000000000000000000000000000815260200190815260200160002054101561064057600080fd5b6106d0565b600180811115610658576106576134c7565b5b84600181111561066b5761066a6134c7565b5b14156106cf5781600360003373ffffffffffffffffffffffffffffffffffffffff1673ffffffffffffffffffffffffffffffffffffffff16815260200190815260200160002060008581526020019081526020016000205410156106ce57600080fd5b5b5b60006005600085815260200190815260200160002060008660018111156106fa576106f96134c7565b5b81526020019081526020016000209050806040518060e0016040528060045481526020013373ffffffffffffffffffffffffffffffffffffffff16815260200187600181111561074d5761074c6134c7565b5b8152602001868152602001858152602001848152602001600081525090806001815401808255809150506001900390600052602060002090600602016000909190919091506000820151816000015560208201518160010160006101000a81548173ffffffffffffffffffffffffffffffffffffffff021916908373ffffffffffffffffffffffffffffffffffffffff16021790555060408201518160010160146101000a81548160ff0219169083600181111561080e5761080d6134c7565b5b0217905550606082015181600201556080820151816003015560a0820151816004015560c082015181600501555050600080828054905011610851576000610863565b60018280549050610862919061337a565b5b905060006001811115610879576108786134c7565b5b86600181111561088c5761088b6134c7565b5b1415610c0a575b6000811115610c05578181815481106108af576108ae613525565b5b906000526020600020906006020160040154826001836108cf919061337a565b815481106108e0576108df613525565b5b90600052602060002090600602016004015411156108fd57610c05565b60008260018361090d919061337a565b8154811061091e5761091d613525565b5b90600052602060002090600602016040518060e0016040529081600082015481526020016001820160009054906101000a900473ffffffffffffffffffffffffffffffffffffffff1673ffffffffffffffffffffffffffffffffffffffff1673ffffffffffffffffffffffffffffffffffffffff1681526020016001820160149054906101000a900460ff1660018111156109bc576109bb6134c7565b5b60018111156109ce576109cd6134c7565b5b81526020016002820154815260200160038201548152602001600482015481526020016005820154815250509050828281548110610a0f57610a0e613525565b5b906000526020600020906006020183600184610a2b919061337a565b81548110610a3c57610a3b613525565b5b9060005260206000209060060201600082015481600001556001820160009054906101000a900473ffffffffffffffffffffffffffffffffffffffff168160010160006101000a81548173ffffffffffffffffffffffffffffffffffffffff021916908373ffffffffffffffffffffffffffffffffffffffff1602179055506001820160149054906101000a900460ff168160010160146101000a81548160ff02191690836001811115610af357610af26134c7565b5b02179055506002820154816002015560038201548160030155600482015481600401556005820154816005015590505080838381548110610b3757610b36613525565b5b90600052602060002090600602016000820151816000015560208201518160010160006101000a81548173ffffffffffffffffffffffffffffffffffffffff021916908373ffffffffffffffffffffffffffffffffffffffff16021790555060408201518160010160146101000a81548160ff02191690836001811115610bc157610bc06134c7565b5b0217905550606082015181600201556080820151816003015560a0820151816004015560c082015181600501559050508180610bfc90613425565b92505050610893565b610fab565b600180811115610c1d57610c1c6134c7565b5b866001811115610c3057610c2f6134c7565b5b1415610faa575b6000811115610fa957818181548110610c5357610c52613525565b5b90600052602060002090600602016004015482600183610c73919061337a565b81548110610c8457610c83613525565b5b9060005260206000209060060201600401541015610ca157610fa9565b600082600183610cb1919061337a565b81548110610cc257610cc1613525565b5b90600052602060002090600602016040518060e0016040529081600082015481526020016001820160009054906101000a900473ffffffffffffffffffffffffffffffffffffffff1673ffffffffffffffffffffffffffffffffffffffff1673ffffffffffffffffffffffffffffffffffffffff1681526020016001820160149054906101000a900460ff166001811115610d6057610d5f6134c7565b5b6001811115610d7257610d716134c7565b5b81526020016002820154815260200160038201548152602001600482015481526020016005820154815250509050828281548110610db357610db2613525565b5b906000526020600020906006020183600184610dcf919061337a565b81548110610de057610ddf613525565b5b9060005260206000209060060201600082015481600001556001820160009054906101000a900473ffffffffffffffffffffffffffffffffffffffff168160010160006101000a81548173ffffffffffffffffffffffffffffffffffffffff021916908373ffffffffffffffffffffffffffffffffffffffff1602179055506001820160149054906101000a900460ff168160010160146101000a81548160ff02191690836001811115610e9757610e966134c7565b5b02179055506002820154816002015560038201548160030155600482015481600401556005820154816005015590505080838381548110610edb57610eda613525565b5b90600052602060002090600602016000820151816000015560208201518160010160006101000a81548173ffffffffffffffffffffffffffffffffffffffff021916908373ffffffffffffffffffffffffffffffffffffffff16021790555060408201518160010160146101000a81548160ff02191690836001811115610f6557610f646134c7565b5b0217905550606082015181600201556080820151816003015560a0820151816004015560c082015181600501559050508180610fa090613425565b92505050610c37565b5b5b60046000815480929190610fbe9061344f565b9190505550505050505050565b610fd3612a03565b73ffffffffffffffffffffffffffffffffffffffff16610ff1611053565b73ffffffffffffffffffffffffffffffffffffffff1614611047576040517f08c379a000000000000000000000000000000000000000000000000000000000815260040161103e906131da565b60405180910390fd5b6110516000612a0b565b565b60008060009054906101000a900473ffffffffffffffffffffffffffffffffffffffff16905090565b611084612a03565b73ffffffffffffffffffffffffffffffffffffffff166110a2611053565b73ffffffffffffffffffffffffffffffffffffffff16146110f8576040517f08c379a00000000000000000000000000000000000000000000000000000000081526004016110ef906131da565b60405180910390fd5b60405180604001604052808381526020018273ffffffffffffffffffffffffffffffffffffffff16815250600160008481526020019081526020016000206000820151816000015560208201518160010160006101000a81548173ffffffffffffffffffffffffffffffffffffffff021916908373ffffffffffffffffffffffffffffffffffffffff16021790555090505060028290806001815401808255809150506001900390600052602060002001600090919091909150555050565b6001808111156111ca576111c96134c7565b5b8360018111156111dd576111dc6134c7565b5b14156112775780600360003373ffffffffffffffffffffffffffffffffffffffff1673ffffffffffffffffffffffffffffffffffffffff1681526020019081526020016000206000848152602001908152602001600020541015611276576040517f08c379a000000000000000000000000000000000000000000000000000000000815260040161126d906131fa565b60405180910390fd5b5b600080600181111561128c5761128b6134c7565b5b84600181111561129f5761129e6134c7565b5b14156112ae57600190506112b3565b600090505b600060056000858152602001908152602001600020600083815260200190815260200160002090506000805b8280549050811080156112f157508482105b15611e3357600061130b8387612acf90919063ffffffff16565b9050600061136a85848154811061132557611324613525565b5b90600052602060002090600602016005015486858154811061134a57611349613525565b5b906000526020600020906006020160030154612acf90919063ffffffff16565b905060008282111561137e57829050611382565b8190505b61139581866129d790919063ffffffff16565b94506113ce818786815481106113ae576113ad613525565b5b9060005260206000209060060201600501546129d790919063ffffffff16565b8685815481106113e1576113e0613525565b5b906000526020600020906006020160050181905550600061142f87868154811061140e5761140d613525565b5b906000526020600020906006020160040154836129ed90919063ffffffff16565b905060006001811115611445576114446134c7565b5b8b6001811115611458576114576134c7565b5b14156119825780600360003373ffffffffffffffffffffffffffffffffffffffff1673ffffffffffffffffffffffffffffffffffffffff16815260200190815260200160002060007f45544800000000000000000000000000000000000000000000000000000000008152602001908152602001600020541015611511576040517f08c379a00000000000000000000000000000000000000000000000000000000081526004016115089061323a565b60405180910390fd5b61157482600360003373ffffffffffffffffffffffffffffffffffffffff1673ffffffffffffffffffffffffffffffffffffffff16815260200190815260200160002060008d8152602001908152602001600020546129d790919063ffffffff16565b600360003373ffffffffffffffffffffffffffffffffffffffff1673ffffffffffffffffffffffffffffffffffffffff16815260200190815260200160002060008c81526020019081526020016000208190555061164b81600360003373ffffffffffffffffffffffffffffffffffffffff1673ffffffffffffffffffffffffffffffffffffffff16815260200190815260200160002060007f4554480000000000000000000000000000000000000000000000000000000000815260200190815260200160002054612acf90919063ffffffff16565b600360003373ffffffffffffffffffffffffffffffffffffffff1673ffffffffffffffffffffffffffffffffffffffff16815260200190815260200160002060007f455448000000000000000000000000000000000000000000000000000000000081526020019081526020016000208190555061176682600360008a89815481106116da576116d9613525565b5b906000526020600020906006020160010160009054906101000a900473ffffffffffffffffffffffffffffffffffffffff1673ffffffffffffffffffffffffffffffffffffffff1673ffffffffffffffffffffffffffffffffffffffff16815260200190815260200160002060008d815260200190815260200160002054612acf90919063ffffffff16565b6003600089888154811061177d5761177c613525565b5b906000526020600020906006020160010160009054906101000a900473ffffffffffffffffffffffffffffffffffffffff1673ffffffffffffffffffffffffffffffffffffffff1673ffffffffffffffffffffffffffffffffffffffff16815260200190815260200160002060008c8152602001908152602001600020819055506118c581600360008a898154811061181957611818613525565b5b906000526020600020906006020160010160009054906101000a900473ffffffffffffffffffffffffffffffffffffffff1673ffffffffffffffffffffffffffffffffffffffff1673ffffffffffffffffffffffffffffffffffffffff16815260200190815260200160002060007f45544800000000000000000000000000000000000000000000000000000000008152602001908152602001600020546129d790919063ffffffff16565b600360008988815481106118dc576118db613525565b5b906000526020600020906006020160010160009054906101000a900473ffffffffffffffffffffffffffffffffffffffff1673ffffffffffffffffffffffffffffffffffffffff1673ffffffffffffffffffffffffffffffffffffffff16815260200190815260200160002060007f4554480000000000000000000000000000000000000000000000000000000000815260200190815260200160002081905550611e1c565b600180811115611995576119946134c7565b5b8b60018111156119a8576119a76134c7565b5b1415611e1b57611a1182600360003373ffffffffffffffffffffffffffffffffffffffff1673ffffffffffffffffffffffffffffffffffffffff16815260200190815260200160002060008d815260200190815260200160002054612acf90919063ffffffff16565b600360003373ffffffffffffffffffffffffffffffffffffffff1673ffffffffffffffffffffffffffffffffffffffff16815260200190815260200160002060008c815260200190815260200160002081905550611ae881600360003373ffffffffffffffffffffffffffffffffffffffff1673ffffffffffffffffffffffffffffffffffffffff16815260200190815260200160002060007f45544800000000000000000000000000000000000000000000000000000000008152602001908152602001600020546129d790919063ffffffff16565b600360003373ffffffffffffffffffffffffffffffffffffffff1673ffffffffffffffffffffffffffffffffffffffff16815260200190815260200160002060007f4554480000000000000000000000000000000000000000000000000000000000815260200190815260200160002081905550611c0382600360008a8981548110611b7757611b76613525565b5b906000526020600020906006020160010160009054906101000a900473ffffffffffffffffffffffffffffffffffffffff1673ffffffffffffffffffffffffffffffffffffffff1673ffffffffffffffffffffffffffffffffffffffff16815260200190815260200160002060008d8152602001908152602001600020546129d790919063ffffffff16565b60036000898881548110611c1a57611c19613525565b5b906000526020600020906006020160010160009054906101000a900473ffffffffffffffffffffffffffffffffffffffff1673ffffffffffffffffffffffffffffffffffffffff1673ffffffffffffffffffffffffffffffffffffffff16815260200190815260200160002060008c815260200190815260200160002081905550611d6281600360008a8981548110611cb657611cb5613525565b5b906000526020600020906006020160010160009054906101000a900473ffffffffffffffffffffffffffffffffffffffff1673ffffffffffffffffffffffffffffffffffffffff1673ffffffffffffffffffffffffffffffffffffffff16815260200190815260200160002060007f4554480000000000000000000000000000000000000000000000000000000000815260200190815260200160002054612acf90919063ffffffff16565b60036000898881548110611d7957611d78613525565b5b906000526020600020906006020160010160009054906101000a900473ffffffffffffffffffffffffffffffffffffffff1673ffffffffffffffffffffffffffffffffffffffff1673ffffffffffffffffffffffffffffffffffffffff16815260200190815260200160002060007f45544800000000000000000000000000000000000000000000000000000000008152602001908152602001600020819055505b5b505050508080611e2b9061344f565b9150506112df565b505b60008280549050118015611e92575081600081548110611e5857611e57613525565b5b90600052602060002090600602016003015482600081548110611e7e57611e7d613525565b5b906000526020600020906006020160050154145b1561207f5760005b60018380549050611eab919061337a565b811015611fec5782600182611ec091906132ca565b81548110611ed157611ed0613525565b5b9060005260206000209060060201838281548110611ef257611ef1613525565b5b9060005260206000209060060201600082015481600001556001820160009054906101000a900473ffffffffffffffffffffffffffffffffffffffff168160010160006101000a81548173ffffffffffffffffffffffffffffffffffffffff021916908373ffffffffffffffffffffffffffffffffffffffff1602179055506001820160149054906101000a900460ff168160010160146101000a81548160ff02191690836001811115611fa957611fa86134c7565b5b0217905550600282015481600201556003820154816003015560048201548160040155600582015481600501559050508080611fe49061344f565b915050611e9a565b5081805480611ffe57611ffd6134f6565b5b60019003818190600052602060002090600602016000808201600090556001820160006101000a81549073ffffffffffffffffffffffffffffffffffffffff02191690556001820160146101000a81549060ff0219169055600282016000905560038201600090556004820160009055600582016000905550509055611e35565b505050505050565b80600073ffffffffffffffffffffffffffffffffffffffff166001600083815260200190815260200160002060010160009054906101000a900473ffffffffffffffffffffffffffffffffffffffff1673ffffffffffffffffffffffffffffffffffffffff16141561212e576040517f08c379a0000000000000000000000000000000000000000000000000000000008152600401612125906131ba565b60405180910390fd5b82600360003373ffffffffffffffffffffffffffffffffffffffff1673ffffffffffffffffffffffffffffffffffffffff16815260200190815260200160002060008481526020019081526020016000205410156121c1576040517f08c379a00000000000000000000000000000000000000000000000000000000081526004016121b89061321a565b60405180910390fd5b61222483600360003373ffffffffffffffffffffffffffffffffffffffff1673ffffffffffffffffffffffffffffffffffffffff168152602001908152602001600020600085815260200190815260200160002054612acf90919063ffffffff16565b600360003373ffffffffffffffffffffffffffffffffffffffff1673ffffffffffffffffffffffffffffffffffffffff1681526020019081526020016000206000848152602001908152602001600020819055506001600083815260200190815260200160002060010160009054906101000a900473ffffffffffffffffffffffffffffffffffffffff1673ffffffffffffffffffffffffffffffffffffffff1663a9059cbb33856040518363ffffffff1660e01b81526004016122e99291906130cb565b602060405180830381600087803b15801561230357600080fd5b505af1158015612317573d6000803e3d6000fd5b505050506040513d601f19601f8201168201806040525081019061233b9190612bbb565b50505050565b606060056000848152602001908152602001600020600083600181111561236b5761236a6134c7565b5b8152602001908152602001600020805480602002602001604051908101604052809291908181526020016000905b8282101561248e57838290600052602060002090600602016040518060e0016040529081600082015481526020016001820160009054906101000a900473ffffffffffffffffffffffffffffffffffffffff1673ffffffffffffffffffffffffffffffffffffffff1673ffffffffffffffffffffffffffffffffffffffff1681526020016001820160149054906101000a900460ff166001811115612441576124406134c7565b5b6001811115612453576124526134c7565b5b815260200160028201548152602001600382015481526020016004820154815260200160058201548152505081526020019060010190612399565b50505050905092915050565b80600360003373ffffffffffffffffffffffffffffffffffffffff1673ffffffffffffffffffffffffffffffffffffffff16815260200190815260200160002060007f4554480000000000000000000000000000000000000000000000000000000000815260200190815260200160002054101561254d576040517f08c379a00000000000000000000000000000000000000000000000000000000081526004016125449061319a565b60405180910390fd5b6125d081600360003373ffffffffffffffffffffffffffffffffffffffff1673ffffffffffffffffffffffffffffffffffffffff16815260200190815260200160002060007f4554480000000000000000000000000000000000000000000000000000000000815260200190815260200160002054612acf90919063ffffffff16565b600360003373ffffffffffffffffffffffffffffffffffffffff1673ffffffffffffffffffffffffffffffffffffffff16815260200190815260200160002060007f45544800000000000000000000000000000000000000000000000000000000008152602001908152602001600020819055503373ffffffffffffffffffffffffffffffffffffffff168160405161266890613064565b60006040518083038185875af1925050503d80600081146126a5576040519150601f19603f3d011682016040523d82523d6000602084013e6126aa565b606091505b50505050565b80600073ffffffffffffffffffffffffffffffffffffffff166001600083815260200190815260200160002060010160009054906101000a900473ffffffffffffffffffffffffffffffffffffffff1673ffffffffffffffffffffffffffffffffffffffff161415612757576040517f08c379a000000000000000000000000000000000000000000000000000000000815260040161274e906131ba565b60405180910390fd5b6001600083815260200190815260200160002060010160009054906101000a900473ffffffffffffffffffffffffffffffffffffffff1673ffffffffffffffffffffffffffffffffffffffff166323b872dd3330866040518463ffffffff1660e01b81526004016127ca93929190613094565b602060405180830381600087803b1580156127e457600080fd5b505af11580156127f8573d6000803e3d6000fd5b505050506040513d601f19601f8201168201806040525081019061281c9190612bbb565b5061288083600360003373ffffffffffffffffffffffffffffffffffffffff1673ffffffffffffffffffffffffffffffffffffffff1681526020019081526020016000206000858152602001908152602001600020546129d790919063ffffffff16565b600360003373ffffffffffffffffffffffffffffffffffffffff1673ffffffffffffffffffffffffffffffffffffffff168152602001908152602001600020600084815260200190815260200160002081905550505050565b6128e1612a03565b73ffffffffffffffffffffffffffffffffffffffff166128ff611053565b73ffffffffffffffffffffffffffffffffffffffff1614612955576040517f08c379a000000000000000000000000000000000000000000000000000000000815260040161294c906131da565b60405180910390fd5b600073ffffffffffffffffffffffffffffffffffffffff168173ffffffffffffffffffffffffffffffffffffffff1614156129c5576040517f08c379a00000000000000000000000000000000000000000000000000000000081526004016129bc9061315a565b60405180910390fd5b6129ce81612a0b565b50565b60045481565b600081836129e591906132ca565b905092915050565b600081836129fb9190613320565b905092915050565b600033905090565b60008060009054906101000a900473ffffffffffffffffffffffffffffffffffffffff169050816000806101000a81548173ffffffffffffffffffffffffffffffffffffffff021916908373ffffffffffffffffffffffffffffffffffffffff1602179055508173ffffffffffffffffffffffffffffffffffffffff168173ffffffffffffffffffffffffffffffffffffffff167f8be0079c531659141344cd1fd0a4f28419497f9722a3daafe3b4186f6b6457e060405160405180910390a35050565b60008183612add919061337a565b905092915050565b600081359050612af48161372a565b92915050565b600081519050612b0981613741565b92915050565b600081359050612b1e81613758565b92915050565b600081359050612b338161376f565b92915050565b600081359050612b488161377f565b92915050565b600060208284031215612b6457612b63613554565b5b6000612b7284828501612ae5565b91505092915050565b60008060408385031215612b9257612b91613554565b5b6000612ba085828601612ae5565b9250506020612bb185828601612b0f565b9150509250929050565b600060208284031215612bd157612bd0613554565b5b6000612bdf84828501612afa565b91505092915050565b600060208284031215612bfe57612bfd613554565b5b6000612c0c84828501612b0f565b91505092915050565b60008060408385031215612c2c57612c2b613554565b5b6000612c3a85828601612b0f565b9250506020612c4b85828601612ae5565b9150509250929050565b60008060408385031215612c6c57612c6b613554565b5b6000612c7a85828601612b0f565b9250506020612c8b85828601612b24565b9150509250929050565b600080600060608486031215612cae57612cad613554565b5b6000612cbc86828701612b24565b9350506020612ccd86828701612b0f565b9250506040612cde86828701612b39565b9150509250925092565b60008060008060808587031215612d0257612d01613554565b5b6000612d1087828801612b24565b9450506020612d2187828801612b0f565b9350506040612d3287828801612b39565b9250506060612d4387828801612b39565b91505092959194509250565b600060208284031215612d6557612d64613554565b5b6000612d7384828501612b39565b91505092915050565b60008060408385031215612d9357612d92613554565b5b6000612da185828601612b39565b9250506020612db285828601612b0f565b9150509250929050565b6000612dc88383612fb8565b60e08301905092915050565b612ddd816133ae565b82525050565b612dec816133ae565b82525050565b6000612dfd82613285565b612e07818561329d565b9350612e1283613275565b8060005b83811015612e43578151612e2a8882612dbc565b9750612e3583613290565b925050600181019050612e16565b5085935050505092915050565b612e59816133cc565b82525050565b612e68816133cc565b82525050565b612e7781613413565b82525050565b6000612e8a6026836132b9565b9150612e9582613559565b604082019050919050565b6000612ead6030836132b9565b9150612eb8826135a8565b604082019050919050565b6000612ed06014836132b9565b9150612edb826135f7565b602082019050919050565b6000612ef36014836132b9565b9150612efe82613620565b602082019050919050565b6000612f166020836132b9565b9150612f2182613649565b602082019050919050565b6000612f396014836132b9565b9150612f4482613672565b602082019050919050565b6000612f5c6016836132b9565b9150612f678261369b565b602082019050919050565b6000612f7f6000836132ae565b9150612f8a826136c4565b600082019050919050565b6000612fa26029836132b9565b9150612fad826136c7565b604082019050919050565b60e082016000820151612fce6000850182613046565b506020820151612fe16020850182612dd4565b506040820151612ff46040850182612e6e565b5060608201516130076060850182612e50565b50608082015161301a6080850182613046565b5060a082015161302d60a0850182613046565b5060c082015161304060c0850182613046565b50505050565b61304f81613409565b82525050565b61305e81613409565b82525050565b600061306f82612f72565b9150819050919050565b600060208201905061308e6000830184612de3565b92915050565b60006060820190506130a96000830186612de3565b6130b66020830185612de3565b6130c36040830184613055565b949350505050565b60006040820190506130e06000830185612de3565b6130ed6020830184613055565b9392505050565b6000602082019050818103600083015261310e8184612df2565b905092915050565b600060208201905061312b6000830184612e5f565b92915050565b60006040820190506131466000830185612e5f565b6131536020830184612de3565b9392505050565b6000602082019050818103600083015261317381612e7d565b9050919050565b6000602082019050818103600083015261319381612ea0565b9050919050565b600060208201905081810360008301526131b381612ec3565b9050919050565b600060208201905081810360008301526131d381612ee6565b9050919050565b600060208201905081810360008301526131f381612f09565b9050919050565b6000602082019050818103600083015261321381612f2c565b9050919050565b6000602082019050818103600083015261323381612f4f565b9050919050565b6000602082019050818103600083015261325381612f95565b9050919050565b600060208201905061326f6000830184613055565b92915050565b6000819050602082019050919050565b600081519050919050565b6000602082019050919050565b600082825260208201905092915050565b600081905092915050565b600082825260208201905092915050565b60006132d582613409565b91506132e083613409565b9250827fffffffffffffffffffffffffffffffffffffffffffffffffffffffffffffffff0382111561331557613314613498565b5b828201905092915050565b600061332b82613409565b915061333683613409565b9250817fffffffffffffffffffffffffffffffffffffffffffffffffffffffffffffffff048311821515161561336f5761336e613498565b5b828202905092915050565b600061338582613409565b915061339083613409565b9250828210156133a3576133a2613498565b5b828203905092915050565b60006133b9826133e9565b9050919050565b60008115159050919050565b6000819050919050565b60008190506133e482613716565b919050565b600073ffffffffffffffffffffffffffffffffffffffff82169050919050565b6000819050919050565b600061341e826133d6565b9050919050565b600061343082613409565b9150600082141561344457613443613498565b5b600182039050919050565b600061345a82613409565b91507fffffffffffffffffffffffffffffffffffffffffffffffffffffffffffffffff82141561348d5761348c613498565b5b600182019050919050565b7f4e487b7100000000000000000000000000000000000000000000000000000000600052601160045260246000fd5b7f4e487b7100000000000000000000000000000000000000000000000000000000600052602160045260246000fd5b7f4e487b7100000000000000000000000000000000000000000000000000000000600052603160045260246000fd5b7f4e487b7100000000000000000000000000000000000000000000000000000000600052603260045260246000fd5b600080fd5b7f4f776e61626c653a206e6577206f776e657220697320746865207a65726f206160008201527f6464726573730000000000000000000000000000000000000000000000000000602082015250565b7f6465706f7369744574683a206d73672e76616c75652073686f756c642062652060008201527f686967686572207468616e207a65726f00000000000000000000000000000000602082015250565b7f496e73756666696369656e742062616c616e6365000000000000000000000000600082015250565b7f546f6b656e20646f6573206e6f74206578697374000000000000000000000000600082015250565b7f4f776e61626c653a2063616c6c6572206973206e6f7420746865206f776e6572600082015250565b7f696e73756666696369656e742062616c616e6365000000000000000000000000600082015250565b7f42616c616e6365206e6f742073756666696369656e7400000000000000000000600082015250565b50565b7f596f7520646f206e6f74206861766520656e6f7567682045544820746f20636f60008201527f7665722074726164650000000000000000000000000000000000000000000000602082015250565b60028110613727576137266134c7565b5b50565b613733816133ae565b811461373e57600080fd5b50565b61374a816133c0565b811461375557600080fd5b50565b613761816133cc565b811461376c57600080fd5b50565b6002811061377c57600080fd5b50565b61378881613409565b811461379357600080fd5b5056fea2646970667358221220c7dc4c170ee6f698e7993e267cda67befb5228f9f2e208c2b87d526e9cc7eb8864736f6c63430008070033",
  "immutableReferences": {},
  "source": "pragma solidity ^0.8.0;\npragma experimental ABIEncoderV2;\n\nimport \"../contracts/wallet.sol\";\n\ncontract Dex is Wallet {\nusing SafeMath for uint256;\n    \n    enum Side {\n        Buy, \n        Sell \n    }\n\n    //order.side = Side.Buy\n\n    struct Order {\n        uint256 id;\n        address trader;\n        Side side;\n        bytes32 ticker;\n        uint256 amount;\n        uint256 price; //limit orders\n        uint256 filled;\n    }\n\n    uint256 public nextOrderID = 0;\n\n    mapping(bytes32 => mapping(uint256 => Order[])) orderBook;\n\n    function getTokenList() public view returns(uint256){\n        return TokenList.length;\n    }\n\n    function getOrderBook(bytes32 ticker, Side side) view public returns(Order[] memory){\n        return orderBook[ticker][uint256(side)];\n    }\n\n    function createLimitOrder( Side side, bytes32 ticker, uint256 amount, uint256 price) public {\n\n        if(side == Side.Buy){\n            require(balances[msg.sender][\"ETH\"] >= amount.mul(price));\n        }\n        else if(side == Side.Sell){\n            require(balances[msg.sender][ticker] >= amount);\n        }\n        Order[] storage orders = orderBook[ticker][uint256(side)];\n        orders.push( Order(nextOrderID, msg.sender, side, ticker, amount, price, 0) );\n\n        //Bubble Loop Algorithm to sort Buy and Sell orders\n        uint256 i = orders.length > 0 ? orders.length -1 : 0;\n\n        if(side == Side.Buy){\n           while(i > 0){\n               if(orders[i-1].price > orders[i].price){\n                   break;\n               }\n               Order memory orderToMove = orders[i-1];\n               orders[i - 1] = orders[i];\n               orders[i] = orderToMove;\n               i--;\n           }\n        }\n\n        else if(side == Side.Sell){\n            while(i > 0){\n               if(orders[i - 1].price < orders[i].price){\n                   break;\n               }\n               Order memory orderToMove = orders[i-1];\n               orders[i - 1] = orders[i];\n               orders[i] = orderToMove;\n               i--;\n           }\n        }\n        nextOrderID++;\n}\n\n     function createMarketOrder( Side side, bytes32 ticker, uint256 amount)public {\n         if(side == Side.Sell){\n            require(balances[msg.sender][ticker] >= amount, \"insufficient balance\");\n         }\n        \n        uint256 orderBookSide;\n        if(side == Side.Buy){\n            orderBookSide = 1;\n        }else{\n            orderBookSide = 0;\n        }\n\n        Order[] storage orders = orderBook[ticker][orderBookSide];\n\n        uint256 totalFilled = 0;\n\n        //this loop will take us into the orderbook\n        for(uint256 i = 0; i < orders.length && totalFilled < amount; i++){\n            //how many existing orders can we fill with our new market order\n            uint256 leftToFill = amount.sub(totalFilled);//amount minus totalFilled\n            uint256 availableToFill = orders[i].amount.sub(orders[i].filled); // how much is available in this current order\n            uint256 filled = 0;\n            if( availableToFill > leftToFill  ){\n                filled = leftToFill; // fill the entire market order\n            }else{\n                filled = availableToFill; // fill whats available in order[i]\n            }\n            totalFilled = totalFilled.add(filled);//update totalFilled\n            orders[i].filled = orders[i].filled.add(filled);\n            uint256 cost = filled.mul(orders[i].price);\n\n            if(side == Side.Buy){\n                //verfiy the buyer has enough eth to cover trade\n                require(balances[msg.sender][\"ETH\"] >= cost, \"You do not have enough ETH to cover trade\");\n                //transfer Eth from buyer to seller\n                balances[msg.sender][ticker] = balances[msg.sender][ticker].add(filled);\n                balances[msg.sender][\"ETH\"] = balances[msg.sender][\"ETH\"].sub(cost);\n                //transfer tokens from seller to buyer\n                balances[orders[i].trader][ticker] = balances[orders[i].trader][ticker].sub(filled);\n                balances[orders[i].trader][\"ETH\"] = balances[orders[i].trader][\"ETH\"].add(cost);\n\n            }else if(side == Side.Sell){\n                //execute the trade\n                balances[msg.sender][ticker] = balances[msg.sender][ticker].sub(filled);\n                balances[msg.sender][\"ETH\"] = balances[msg.sender][\"ETH\"].add(cost);\n    \n                balances[orders[i].trader][ticker] = balances[orders[i].trader][ticker].add(filled);\n                balances[orders[i].trader][\"ETH\"] = balances[orders[i].trader][\"ETH\"].sub(cost);\n            }            \n\n        }\n\n            //Loop through order book and remove 100% filled orders\n            while( orders.length > 0 && orders[0].filled == orders[0].amount ){\n                //removing the top element by overwriting every element with the next element in the list\n                for(uint256 i = 0; i < orders.length -1; i++){\n                    orders[i] = orders[i +1];\n                }\n                orders.pop();\n        }\n     }\n\n}",
  "sourcePath": "/Users/OllieFrancis/Documents/Ethereum/new_Dex_Dapp/contracts/dex.sol",
  "compiler": {
    "name": "solc",
    "version": "0.8.7+commit.e28d00a7.Emscripten.clang"
  },
  "schemaVersion": "3.4.2",
  "updatedAt": "2021-09-06T11:10:35.024Z",
  "networkType": "ethereum",
  "devdoc": {
    "kind": "dev",
    "methods": {
      "owner()": {
        "details": "Returns the address of the current owner."
      },
      "renounceOwnership()": {
        "details": "Leaves the contract without owner. It will not be possible to call `onlyOwner` functions anymore. Can only be called by the current owner. NOTE: Renouncing ownership will leave the contract without an owner, thereby removing any functionality that is only available to the owner."
      },
      "transferOwnership(address)": {
        "details": "Transfers ownership of the contract to a new account (`newOwner`). Can only be called by the current owner."
      }
    },
    "version": 1
  },
  "userdoc": {
    "kind": "user",
    "methods": {},
    "version": 1
  }
}