{
  "contractName": "Wallet",
  "abi": [
    {
      "anonymous": false,
      "inputs": [
        {
          "indexed": true,
          "internalType": "address",
          "name": "previousOwner",
          "type": "address"
        },
        {
          "indexed": true,
          "internalType": "address",
          "name": "newOwner",
          "type": "address"
        }
      ],
      "name": "OwnershipTransferred",
      "type": "event"
    },
    {
      "inputs": [
        {
          "internalType": "uint256",
          "name": "",
          "type": "uint256"
        }
      ],
      "name": "TokenList",
      "outputs": [
        {
          "internalType": "bytes32",
          "name": "",
          "type": "bytes32"
        }
      ],
      "stateMutability": "view",
      "type": "function"
    },
    {
      "inputs": [
        {
          "internalType": "address",
          "name": "",
          "type": "address"
        },
        {
          "internalType": "bytes32",
          "name": "",
          "type": "bytes32"
        }
      ],
      "name": "balances",
      "outputs": [
        {
          "internalType": "uint256",
          "name": "",
          "type": "uint256"
        }
      ],
      "stateMutability": "view",
      "type": "function"
    },
    {
      "inputs": [],
      "name": "owner",
      "outputs": [
        {
          "internalType": "address",
          "name": "",
          "type": "address"
        }
      ],
      "stateMutability": "view",
      "type": "function"
    },
    {
      "inputs": [],
      "name": "renounceOwnership",
      "outputs": [],
      "stateMutability": "nonpayable",
      "type": "function"
    },
    {
      "inputs": [
        {
          "internalType": "bytes32",
          "name": "",
          "type": "bytes32"
        }
      ],
      "name": "tokenMapping",
      "outputs": [
        {
          "internalType": "bytes32",
          "name": "ticker",
          "type": "bytes32"
        },
        {
          "internalType": "address",
          "name": "tokenAddress",
          "type": "address"
        }
      ],
      "stateMutability": "view",
      "type": "function"
    },
    {
      "inputs": [
        {
          "internalType": "address",
          "name": "newOwner",
          "type": "address"
        }
      ],
      "name": "transferOwnership",
      "outputs": [],
      "stateMutability": "nonpayable",
      "type": "function"
    },
    {
      "inputs": [
        {
          "internalType": "bytes32",
          "name": "ticker",
          "type": "bytes32"
        },
        {
          "internalType": "address",
          "name": "tokenAddress",
          "type": "address"
        }
      ],
      "name": "addToken",
      "outputs": [],
      "stateMutability": "nonpayable",
      "type": "function"
    },
    {
      "inputs": [
        {
          "internalType": "uint256",
          "name": "amount",
          "type": "uint256"
        },
        {
          "internalType": "bytes32",
          "name": "ticker",
          "type": "bytes32"
        }
      ],
      "name": "deposit",
      "outputs": [],
      "stateMutability": "nonpayable",
      "type": "function"
    },
    {
      "inputs": [
        {
          "internalType": "uint256",
          "name": "amount",
          "type": "uint256"
        },
        {
          "internalType": "bytes32",
          "name": "ticker",
          "type": "bytes32"
        }
      ],
      "name": "withdraw",
      "outputs": [],
      "stateMutability": "nonpayable",
      "type": "function"
    },
    {
      "inputs": [],
      "name": "depositEth",
      "outputs": [],
      "stateMutability": "payable",
      "type": "function"
    },
    {
      "inputs": [
        {
          "internalType": "uint256",
          "name": "amount",
          "type": "uint256"
        }
      ],
      "name": "withdrawEth",
      "outputs": [],
      "stateMutability": "nonpayable",
      "type": "function"
    }
  ],
  "bytecode": "0x608060405234801561001057600080fd5b5061002d61002261003260201b60201c565b61003a60201b60201c565b6100fe565b600033905090565b60008060009054906101000a900473ffffffffffffffffffffffffffffffffffffffff169050816000806101000a81548173ffffffffffffffffffffffffffffffffffffffff021916908373ffffffffffffffffffffffffffffffffffffffff1602179055508173ffffffffffffffffffffffffffffffffffffffff168173ffffffffffffffffffffffffffffffffffffffff167f8be0079c531659141344cd1fd0a4f28419497f9722a3daafe3b4186f6b6457e060405160405180910390a35050565b6116ac8061010d6000396000f3fe60806040526004361061009c5760003560e01c80638da5cb5b116100645780638da5cb5b1461017a5780639776aacf146101a5578063a8d2021a146101ce578063c311d049146101f7578063c9630cb014610220578063f2fde38b146102495761009c565b806303a53595146100a15780631f14df69146100de578063439370b11461011b578063667cb4ba14610125578063715018a614610163575b600080fd5b3480156100ad57600080fd5b506100c860048036038101906100c3919061106b565b610272565b6040516100d5919061128a565b60405180910390f35b3480156100ea57600080fd5b5061010560048036038101906101009190610f91565b610296565b604051610112919061138e565b60405180910390f35b6101236102bb565b005b34801561013157600080fd5b5061014c60048036038101906101479190610ffe565b6103f7565b60405161015a9291906112a5565b60405180910390f35b34801561016f57600080fd5b5061017861043b565b005b34801561018657600080fd5b5061018f6104c3565b60405161019c919061120f565b60405180910390f35b3480156101b157600080fd5b506101cc60048036038101906101c7919061102b565b6104ec565b005b3480156101da57600080fd5b506101f560048036038101906101f09190611098565b610627565b005b34801561020357600080fd5b5061021e6004803603810190610219919061106b565b6108e1565b005b34801561022c57600080fd5b5061024760048036038101906102429190611098565b610af7565b005b34801561025557600080fd5b50610270600480360381019061026b9190610f64565b610d20565b005b6002818154811061028257600080fd5b906000526020600020016000915090505481565b6003602052816000526040600020602052806000526040600020600091509150505481565b600034116102fe576040517f08c379a00000000000000000000000000000000000000000000000000000000081526004016102f5906112ee565b60405180910390fd5b61038134600360003373ffffffffffffffffffffffffffffffffffffffff1673ffffffffffffffffffffffffffffffffffffffff16815260200190815260200160002060007f4554480000000000000000000000000000000000000000000000000000000000815260200190815260200160002054610e1890919063ffffffff16565b600360003373ffffffffffffffffffffffffffffffffffffffff1673ffffffffffffffffffffffffffffffffffffffff16815260200190815260200160002060007f4554480000000000000000000000000000000000000000000000000000000000815260200190815260200160002081905550565b60016020528060005260406000206000915090508060000154908060010160009054906101000a900473ffffffffffffffffffffffffffffffffffffffff16905082565b610443610e2e565b73ffffffffffffffffffffffffffffffffffffffff166104616104c3565b73ffffffffffffffffffffffffffffffffffffffff16146104b7576040517f08c379a00000000000000000000000000000000000000000000000000000000081526004016104ae9061134e565b60405180910390fd5b6104c16000610e36565b565b60008060009054906101000a900473ffffffffffffffffffffffffffffffffffffffff16905090565b6104f4610e2e565b73ffffffffffffffffffffffffffffffffffffffff166105126104c3565b73ffffffffffffffffffffffffffffffffffffffff1614610568576040517f08c379a000000000000000000000000000000000000000000000000000000000815260040161055f9061134e565b60405180910390fd5b60405180604001604052808381526020018273ffffffffffffffffffffffffffffffffffffffff16815250600160008481526020019081526020016000206000820151816000015560208201518160010160006101000a81548173ffffffffffffffffffffffffffffffffffffffff021916908373ffffffffffffffffffffffffffffffffffffffff16021790555090505060028290806001815401808255809150506001900390600052602060002001600090919091909150555050565b80600073ffffffffffffffffffffffffffffffffffffffff166001600083815260200190815260200160002060010160009054906101000a900473ffffffffffffffffffffffffffffffffffffffff1673ffffffffffffffffffffffffffffffffffffffff1614156106ce576040517f08c379a00000000000000000000000000000000000000000000000000000000081526004016106c59061132e565b60405180910390fd5b82600360003373ffffffffffffffffffffffffffffffffffffffff1673ffffffffffffffffffffffffffffffffffffffff1681526020019081526020016000206000848152602001908152602001600020541015610761576040517f08c379a00000000000000000000000000000000000000000000000000000000081526004016107589061136e565b60405180910390fd5b6107c483600360003373ffffffffffffffffffffffffffffffffffffffff1673ffffffffffffffffffffffffffffffffffffffff168152602001908152602001600020600085815260200190815260200160002054610efa90919063ffffffff16565b600360003373ffffffffffffffffffffffffffffffffffffffff1673ffffffffffffffffffffffffffffffffffffffff1681526020019081526020016000206000848152602001908152602001600020819055506001600083815260200190815260200160002060010160009054906101000a900473ffffffffffffffffffffffffffffffffffffffff1673ffffffffffffffffffffffffffffffffffffffff1663a9059cbb33856040518363ffffffff1660e01b8152600401610889929190611261565b602060405180830381600087803b1580156108a357600080fd5b505af11580156108b7573d6000803e3d6000fd5b505050506040513d601f19601f820116820180604052508101906108db9190610fd1565b50505050565b80600360003373ffffffffffffffffffffffffffffffffffffffff1673ffffffffffffffffffffffffffffffffffffffff16815260200190815260200160002060007f45544800000000000000000000000000000000000000000000000000000000008152602001908152602001600020541015610994576040517f08c379a000000000000000000000000000000000000000000000000000000000815260040161098b9061130e565b60405180910390fd5b610a1781600360003373ffffffffffffffffffffffffffffffffffffffff1673ffffffffffffffffffffffffffffffffffffffff16815260200190815260200160002060007f4554480000000000000000000000000000000000000000000000000000000000815260200190815260200160002054610efa90919063ffffffff16565b600360003373ffffffffffffffffffffffffffffffffffffffff1673ffffffffffffffffffffffffffffffffffffffff16815260200190815260200160002060007f45544800000000000000000000000000000000000000000000000000000000008152602001908152602001600020819055503373ffffffffffffffffffffffffffffffffffffffff1681604051610aaf906111fa565b60006040518083038185875af1925050503d8060008114610aec576040519150601f19603f3d011682016040523d82523d6000602084013e610af1565b606091505b50505050565b80600073ffffffffffffffffffffffffffffffffffffffff166001600083815260200190815260200160002060010160009054906101000a900473ffffffffffffffffffffffffffffffffffffffff1673ffffffffffffffffffffffffffffffffffffffff161415610b9e576040517f08c379a0000000000000000000000000000000000000000000000000000000008152600401610b959061132e565b60405180910390fd5b6001600083815260200190815260200160002060010160009054906101000a900473ffffffffffffffffffffffffffffffffffffffff1673ffffffffffffffffffffffffffffffffffffffff166323b872dd3330866040518463ffffffff1660e01b8152600401610c119392919061122a565b602060405180830381600087803b158015610c2b57600080fd5b505af1158015610c3f573d6000803e3d6000fd5b505050506040513d601f19601f82011682018060405250810190610c639190610fd1565b50610cc783600360003373ffffffffffffffffffffffffffffffffffffffff1673ffffffffffffffffffffffffffffffffffffffff168152602001908152602001600020600085815260200190815260200160002054610e1890919063ffffffff16565b600360003373ffffffffffffffffffffffffffffffffffffffff1673ffffffffffffffffffffffffffffffffffffffff168152602001908152602001600020600084815260200190815260200160002081905550505050565b610d28610e2e565b73ffffffffffffffffffffffffffffffffffffffff16610d466104c3565b73ffffffffffffffffffffffffffffffffffffffff1614610d9c576040517f08c379a0000000000000000000000000000000000000000000000000000000008152600401610d939061134e565b60405180910390fd5b600073ffffffffffffffffffffffffffffffffffffffff168173ffffffffffffffffffffffffffffffffffffffff161415610e0c576040517f08c379a0000000000000000000000000000000000000000000000000000000008152600401610e03906112ce565b60405180910390fd5b610e1581610e36565b50565b60008183610e2691906113c5565b905092915050565b600033905090565b60008060009054906101000a900473ffffffffffffffffffffffffffffffffffffffff169050816000806101000a81548173ffffffffffffffffffffffffffffffffffffffff021916908373ffffffffffffffffffffffffffffffffffffffff1602179055508173ffffffffffffffffffffffffffffffffffffffff168173ffffffffffffffffffffffffffffffffffffffff167f8be0079c531659141344cd1fd0a4f28419497f9722a3daafe3b4186f6b6457e060405160405180910390a35050565b60008183610f08919061141b565b905092915050565b600081359050610f1f8161161a565b92915050565b600081519050610f3481611631565b92915050565b600081359050610f4981611648565b92915050565b600081359050610f5e8161165f565b92915050565b600060208284031215610f7a57610f796114d0565b5b6000610f8884828501610f10565b91505092915050565b60008060408385031215610fa857610fa76114d0565b5b6000610fb685828601610f10565b9250506020610fc785828601610f3a565b9150509250929050565b600060208284031215610fe757610fe66114d0565b5b6000610ff584828501610f25565b91505092915050565b600060208284031215611014576110136114d0565b5b600061102284828501610f3a565b91505092915050565b60008060408385031215611042576110416114d0565b5b600061105085828601610f3a565b925050602061106185828601610f10565b9150509250929050565b600060208284031215611081576110806114d0565b5b600061108f84828501610f4f565b91505092915050565b600080604083850312156110af576110ae6114d0565b5b60006110bd85828601610f4f565b92505060206110ce85828601610f3a565b9150509250929050565b6110e18161144f565b82525050565b6110f08161146d565b82525050565b60006111036026836113b4565b915061110e826114d5565b604082019050919050565b60006111266030836113b4565b915061113182611524565b604082019050919050565b60006111496014836113b4565b915061115482611573565b602082019050919050565b600061116c6014836113b4565b91506111778261159c565b602082019050919050565b600061118f6020836113b4565b915061119a826115c5565b602082019050919050565b60006111b26016836113b4565b91506111bd826115ee565b602082019050919050565b60006111d56000836113a9565b91506111e082611617565b600082019050919050565b6111f481611497565b82525050565b6000611205826111c8565b9150819050919050565b600060208201905061122460008301846110d8565b92915050565b600060608201905061123f60008301866110d8565b61124c60208301856110d8565b61125960408301846111eb565b949350505050565b600060408201905061127660008301856110d8565b61128360208301846111eb565b9392505050565b600060208201905061129f60008301846110e7565b92915050565b60006040820190506112ba60008301856110e7565b6112c760208301846110d8565b9392505050565b600060208201905081810360008301526112e7816110f6565b9050919050565b6000602082019050818103600083015261130781611119565b9050919050565b600060208201905081810360008301526113278161113c565b9050919050565b600060208201905081810360008301526113478161115f565b9050919050565b6000602082019050818103600083015261136781611182565b9050919050565b60006020820190508181036000830152611387816111a5565b9050919050565b60006020820190506113a360008301846111eb565b92915050565b600081905092915050565b600082825260208201905092915050565b60006113d082611497565b91506113db83611497565b9250827fffffffffffffffffffffffffffffffffffffffffffffffffffffffffffffffff038211156114105761140f6114a1565b5b828201905092915050565b600061142682611497565b915061143183611497565b925082821015611444576114436114a1565b5b828203905092915050565b600061145a82611477565b9050919050565b60008115159050919050565b6000819050919050565b600073ffffffffffffffffffffffffffffffffffffffff82169050919050565b6000819050919050565b7f4e487b7100000000000000000000000000000000000000000000000000000000600052601160045260246000fd5b600080fd5b7f4f776e61626c653a206e6577206f776e657220697320746865207a65726f206160008201527f6464726573730000000000000000000000000000000000000000000000000000602082015250565b7f6465706f7369744574683a206d73672e76616c75652073686f756c642062652060008201527f686967686572207468616e207a65726f00000000000000000000000000000000602082015250565b7f496e73756666696369656e742062616c616e6365000000000000000000000000600082015250565b7f546f6b656e20646f6573206e6f74206578697374000000000000000000000000600082015250565b7f4f776e61626c653a2063616c6c6572206973206e6f7420746865206f776e6572600082015250565b7f42616c616e6365206e6f742073756666696369656e7400000000000000000000600082015250565b50565b6116238161144f565b811461162e57600080fd5b50565b61163a81611461565b811461164557600080fd5b50565b6116518161146d565b811461165c57600080fd5b50565b61166881611497565b811461167357600080fd5b5056fea264697066735822122008c45714bf87bafaa1129fef3f4cc4159c56f8cf72937727639d60f4a81652e964736f6c63430008070033",
  "immutableReferences": {},
  "source": "pragma solidity ^0.8.0;\n\nimport \"../node_modules/@openzeppelin/contracts/token/ERC20/IERC20.sol\";\nimport \"../node_modules/@openzeppelin/contracts/utils/math/SafeMath.sol\";\nimport \"../node_modules/@openzeppelin/contracts/access/Ownable.sol\";\n\ncontract Wallet is Ownable{\n    using SafeMath for uint256;\n\n    struct Token {\n        bytes32 ticker;  \n        address tokenAddress;\n    }\n    mapping(bytes32 => Token) public tokenMapping;\n    bytes32[] public TokenList;\n    mapping(address => mapping(bytes32 => uint256)) public balances;\n\n    modifier tokenExists(bytes32 ticker) {\n        require(tokenMapping[ticker].tokenAddress != address(0), \"Token does not exist\");\n        _;\n    }\n\n    function addToken(bytes32 ticker, address tokenAddress) onlyOwner external {\n        //save the ticker to our mapping, be equal to new token with a ticker and address\n        tokenMapping[ticker] = Token(ticker, tokenAddress);\n        //just want a list of all the ID's\n        TokenList.push(ticker);\n    }\n\n    function deposit(uint amount, bytes32 ticker) tokenExists(ticker) external{\n        //transfer from msg.sender to us\n        IERC20(tokenMapping[ticker].tokenAddress).transferFrom(msg.sender, address(this), amount);\n        balances[msg.sender][ticker] = balances[msg.sender][ticker].add(amount);\n    }\n\n    function withdraw(uint amount, bytes32 ticker) tokenExists(ticker) external{\n        //make sure the token exists\n        require(balances[msg.sender][ticker] >= amount, \"Balance not sufficient\");\n        //adjust the balances before\n        balances[msg.sender][ticker] = balances[msg.sender][ticker].sub(amount);\n        //input the address (token address for the ticker) and transfer from us to the msg.sender \n        //msg.sender is the rightfull owner of the tokens\n        IERC20(tokenMapping[ticker].tokenAddress).transfer(msg.sender, amount);\n    }\n\n    function depositEth() payable external {\n        require(msg.value > 0, \"depositEth: msg.value should be higher than zero\");\n        balances[msg.sender][bytes32(\"ETH\")] = balances[msg.sender][bytes32(\"ETH\")].add(msg.value);\n    }\n    \n    function withdrawEth(uint amount) external {\n        require(balances[msg.sender][bytes32(\"ETH\")] >= amount,'Insufficient balance'); \n        balances[msg.sender][bytes32(\"ETH\")] = balances[msg.sender][bytes32(\"ETH\")].sub(amount);\n        msg.sender.call{value:amount}(\"\");\n        \n    }\n\n}",
  "sourcePath": "/Users/OllieFrancis/Documents/Ethereum/DexDApp copy 2/contracts/wallet.sol",
  "compiler": {
    "name": "solc",
    "version": "0.8.7+commit.e28d00a7.Emscripten.clang"
  },
  "schemaVersion": "3.4.2",
  "updatedAt": "2021-09-01T12:07:13.225Z",
  "devdoc": {
    "kind": "dev",
    "methods": {
      "owner()": {
        "details": "Returns the address of the current owner."
      },
      "renounceOwnership()": {
        "details": "Leaves the contract without owner. It will not be possible to call `onlyOwner` functions anymore. Can only be called by the current owner. NOTE: Renouncing ownership will leave the contract without an owner, thereby removing any functionality that is only available to the owner."
      },
      "transferOwnership(address)": {
        "details": "Transfers ownership of the contract to a new account (`newOwner`). Can only be called by the current owner."
      }
    },
    "version": 1
  },
  "userdoc": {
    "kind": "user",
    "methods": {},
    "version": 1
  }
}