{
  "contractName": "Wallet",
  "abi": [
    {
      "anonymous": false,
      "inputs": [
        {
          "indexed": true,
          "internalType": "address",
          "name": "previousOwner",
          "type": "address"
        },
        {
          "indexed": true,
          "internalType": "address",
          "name": "newOwner",
          "type": "address"
        }
      ],
      "name": "OwnershipTransferred",
      "type": "event"
    },
    {
      "inputs": [
        {
          "internalType": "uint256",
          "name": "",
          "type": "uint256"
        }
      ],
      "name": "TokenList",
      "outputs": [
        {
          "internalType": "bytes32",
          "name": "",
          "type": "bytes32"
        }
      ],
      "stateMutability": "view",
      "type": "function"
    },
    {
      "inputs": [
        {
          "internalType": "address",
          "name": "",
          "type": "address"
        },
        {
          "internalType": "bytes32",
          "name": "",
          "type": "bytes32"
        }
      ],
      "name": "balances",
      "outputs": [
        {
          "internalType": "uint256",
          "name": "",
          "type": "uint256"
        }
      ],
      "stateMutability": "view",
      "type": "function"
    },
    {
      "inputs": [],
      "name": "owner",
      "outputs": [
        {
          "internalType": "address",
          "name": "",
          "type": "address"
        }
      ],
      "stateMutability": "view",
      "type": "function"
    },
    {
      "inputs": [],
      "name": "renounceOwnership",
      "outputs": [],
      "stateMutability": "nonpayable",
      "type": "function"
    },
    {
      "inputs": [
        {
          "internalType": "bytes32",
          "name": "",
          "type": "bytes32"
        }
      ],
      "name": "tokenMapping",
      "outputs": [
        {
          "internalType": "bytes32",
          "name": "ticker",
          "type": "bytes32"
        },
        {
          "internalType": "address",
          "name": "tokenAddress",
          "type": "address"
        }
      ],
      "stateMutability": "view",
      "type": "function"
    },
    {
      "inputs": [
        {
          "internalType": "address",
          "name": "newOwner",
          "type": "address"
        }
      ],
      "name": "transferOwnership",
      "outputs": [],
      "stateMutability": "nonpayable",
      "type": "function"
    },
    {
      "inputs": [
        {
          "internalType": "bytes32",
          "name": "ticker",
          "type": "bytes32"
        },
        {
          "internalType": "address",
          "name": "tokenAddress",
          "type": "address"
        }
      ],
      "name": "addToken",
      "outputs": [],
      "stateMutability": "nonpayable",
      "type": "function"
    },
    {
      "inputs": [
        {
          "internalType": "uint256",
          "name": "amount",
          "type": "uint256"
        },
        {
          "internalType": "bytes32",
          "name": "ticker",
          "type": "bytes32"
        }
      ],
      "name": "deposit",
      "outputs": [],
      "stateMutability": "nonpayable",
      "type": "function"
    },
    {
      "inputs": [
        {
          "internalType": "uint256",
          "name": "amount",
          "type": "uint256"
        },
        {
          "internalType": "bytes32",
          "name": "ticker",
          "type": "bytes32"
        }
      ],
      "name": "withdraw",
      "outputs": [],
      "stateMutability": "nonpayable",
      "type": "function"
    },
    {
      "inputs": [],
      "name": "depositEth",
      "outputs": [],
      "stateMutability": "payable",
      "type": "function"
    },
    {
      "inputs": [
        {
          "internalType": "uint256",
          "name": "amount",
          "type": "uint256"
        }
      ],
      "name": "withdrawEth",
      "outputs": [],
      "stateMutability": "nonpayable",
      "type": "function"
    }
  ],
  "bytecode": "0x608060405234801561001057600080fd5b5060006100216100c460201b60201c565b9050806000806101000a81548173ffffffffffffffffffffffffffffffffffffffff021916908373ffffffffffffffffffffffffffffffffffffffff1602179055508073ffffffffffffffffffffffffffffffffffffffff16600073ffffffffffffffffffffffffffffffffffffffff167f8be0079c531659141344cd1fd0a4f28419497f9722a3daafe3b4186f6b6457e060405160405180910390a3506100cc565b600033905090565b61160d806100db6000396000f3fe60806040526004361061009c5760003560e01c80638da5cb5b116100645780638da5cb5b1461017a5780639776aacf146101a5578063a8d2021a146101ce578063c311d049146101f7578063c9630cb014610220578063f2fde38b146102495761009c565b806303a53595146100a15780631f14df69146100de578063439370b11461011b578063667cb4ba14610125578063715018a614610163575b600080fd5b3480156100ad57600080fd5b506100c860048036038101906100c391906110b3565b610272565b6040516100d59190611355565b60405180910390f35b3480156100ea57600080fd5b5061010560048036038101906101009190610fe9565b610296565b6040516101129190611439565b60405180910390f35b6101236102bb565b005b34801561013157600080fd5b5061014c6004803603810190610147919061104e565b6103b4565b60405161015a929190611370565b60405180910390f35b34801561016f57600080fd5b506101786103f8565b005b34801561018657600080fd5b5061018f610532565b60405161019c91906112da565b60405180910390f35b3480156101b157600080fd5b506101cc60048036038101906101c79190611077565b61055b565b005b3480156101da57600080fd5b506101f560048036038101906101f091906110dc565b610696565b005b34801561020357600080fd5b5061021e600480360381019061021991906110b3565b610950565b005b34801561022c57600080fd5b50610247600480360381019061024291906110dc565b610b66565b005b34801561025557600080fd5b50610270600480360381019061026b9190610fc0565b610d8f565b005b6002818154811061028257600080fd5b906000526020600020016000915090505481565b6003602052816000526040600020602052806000526040600020600091509150505481565b61033e34600360003373ffffffffffffffffffffffffffffffffffffffff1673ffffffffffffffffffffffffffffffffffffffff16815260200190815260200160002060007f4554480000000000000000000000000000000000000000000000000000000000815260200190815260200160002054610f3890919063ffffffff16565b600360003373ffffffffffffffffffffffffffffffffffffffff1673ffffffffffffffffffffffffffffffffffffffff16815260200190815260200160002060007f4554480000000000000000000000000000000000000000000000000000000000815260200190815260200160002081905550565b60016020528060005260406000206000915090508060000154908060010160009054906101000a900473ffffffffffffffffffffffffffffffffffffffff16905082565b610400610f4e565b73ffffffffffffffffffffffffffffffffffffffff1661041e610532565b73ffffffffffffffffffffffffffffffffffffffff1614610474576040517f08c379a000000000000000000000000000000000000000000000000000000000815260040161046b906113f9565b60405180910390fd5b600073ffffffffffffffffffffffffffffffffffffffff1660008054906101000a900473ffffffffffffffffffffffffffffffffffffffff1673ffffffffffffffffffffffffffffffffffffffff167f8be0079c531659141344cd1fd0a4f28419497f9722a3daafe3b4186f6b6457e060405160405180910390a360008060006101000a81548173ffffffffffffffffffffffffffffffffffffffff021916908373ffffffffffffffffffffffffffffffffffffffff160217905550565b60008060009054906101000a900473ffffffffffffffffffffffffffffffffffffffff16905090565b610563610f4e565b73ffffffffffffffffffffffffffffffffffffffff16610581610532565b73ffffffffffffffffffffffffffffffffffffffff16146105d7576040517f08c379a00000000000000000000000000000000000000000000000000000000081526004016105ce906113f9565b60405180910390fd5b60405180604001604052808381526020018273ffffffffffffffffffffffffffffffffffffffff16815250600160008481526020019081526020016000206000820151816000015560208201518160010160006101000a81548173ffffffffffffffffffffffffffffffffffffffff021916908373ffffffffffffffffffffffffffffffffffffffff16021790555090505060028290806001815401808255809150506001900390600052602060002001600090919091909150555050565b80600073ffffffffffffffffffffffffffffffffffffffff166001600083815260200190815260200160002060010160009054906101000a900473ffffffffffffffffffffffffffffffffffffffff1673ffffffffffffffffffffffffffffffffffffffff16141561073d576040517f08c379a0000000000000000000000000000000000000000000000000000000008152600401610734906113d9565b60405180910390fd5b82600360003373ffffffffffffffffffffffffffffffffffffffff1673ffffffffffffffffffffffffffffffffffffffff16815260200190815260200160002060008481526020019081526020016000205410156107d0576040517f08c379a00000000000000000000000000000000000000000000000000000000081526004016107c790611419565b60405180910390fd5b61083383600360003373ffffffffffffffffffffffffffffffffffffffff1673ffffffffffffffffffffffffffffffffffffffff168152602001908152602001600020600085815260200190815260200160002054610f5690919063ffffffff16565b600360003373ffffffffffffffffffffffffffffffffffffffff1673ffffffffffffffffffffffffffffffffffffffff1681526020019081526020016000206000848152602001908152602001600020819055506001600083815260200190815260200160002060010160009054906101000a900473ffffffffffffffffffffffffffffffffffffffff1673ffffffffffffffffffffffffffffffffffffffff1663a9059cbb33856040518363ffffffff1660e01b81526004016108f892919061132c565b602060405180830381600087803b15801561091257600080fd5b505af1158015610926573d6000803e3d6000fd5b505050506040513d601f19601f8201168201806040525081019061094a9190611025565b50505050565b80600360003373ffffffffffffffffffffffffffffffffffffffff1673ffffffffffffffffffffffffffffffffffffffff16815260200190815260200160002060007f45544800000000000000000000000000000000000000000000000000000000008152602001908152602001600020541015610a03576040517f08c379a00000000000000000000000000000000000000000000000000000000081526004016109fa906113b9565b60405180910390fd5b610a8681600360003373ffffffffffffffffffffffffffffffffffffffff1673ffffffffffffffffffffffffffffffffffffffff16815260200190815260200160002060007f4554480000000000000000000000000000000000000000000000000000000000815260200190815260200160002054610f5690919063ffffffff16565b600360003373ffffffffffffffffffffffffffffffffffffffff1673ffffffffffffffffffffffffffffffffffffffff16815260200190815260200160002060007f45544800000000000000000000000000000000000000000000000000000000008152602001908152602001600020819055503373ffffffffffffffffffffffffffffffffffffffff1681604051610b1e906112c5565b60006040518083038185875af1925050503d8060008114610b5b576040519150601f19603f3d011682016040523d82523d6000602084013e610b60565b606091505b50505050565b80600073ffffffffffffffffffffffffffffffffffffffff166001600083815260200190815260200160002060010160009054906101000a900473ffffffffffffffffffffffffffffffffffffffff1673ffffffffffffffffffffffffffffffffffffffff161415610c0d576040517f08c379a0000000000000000000000000000000000000000000000000000000008152600401610c04906113d9565b60405180910390fd5b6001600083815260200190815260200160002060010160009054906101000a900473ffffffffffffffffffffffffffffffffffffffff1673ffffffffffffffffffffffffffffffffffffffff166323b872dd3330866040518463ffffffff1660e01b8152600401610c80939291906112f5565b602060405180830381600087803b158015610c9a57600080fd5b505af1158015610cae573d6000803e3d6000fd5b505050506040513d601f19601f82011682018060405250810190610cd29190611025565b50610d3683600360003373ffffffffffffffffffffffffffffffffffffffff1673ffffffffffffffffffffffffffffffffffffffff168152602001908152602001600020600085815260200190815260200160002054610f3890919063ffffffff16565b600360003373ffffffffffffffffffffffffffffffffffffffff1673ffffffffffffffffffffffffffffffffffffffff168152602001908152602001600020600084815260200190815260200160002081905550505050565b610d97610f4e565b73ffffffffffffffffffffffffffffffffffffffff16610db5610532565b73ffffffffffffffffffffffffffffffffffffffff1614610e0b576040517f08c379a0000000000000000000000000000000000000000000000000000000008152600401610e02906113f9565b60405180910390fd5b600073ffffffffffffffffffffffffffffffffffffffff168173ffffffffffffffffffffffffffffffffffffffff161415610e7b576040517f08c379a0000000000000000000000000000000000000000000000000000000008152600401610e7290611399565b60405180910390fd5b8073ffffffffffffffffffffffffffffffffffffffff1660008054906101000a900473ffffffffffffffffffffffffffffffffffffffff1673ffffffffffffffffffffffffffffffffffffffff167f8be0079c531659141344cd1fd0a4f28419497f9722a3daafe3b4186f6b6457e060405160405180910390a3806000806101000a81548173ffffffffffffffffffffffffffffffffffffffff021916908373ffffffffffffffffffffffffffffffffffffffff16021790555050565b60008183610f469190611470565b905092915050565b600033905090565b60008183610f6491906114c6565b905092915050565b600081359050610f7b8161157b565b92915050565b600081519050610f9081611592565b92915050565b600081359050610fa5816115a9565b92915050565b600081359050610fba816115c0565b92915050565b600060208284031215610fd257600080fd5b6000610fe084828501610f6c565b91505092915050565b60008060408385031215610ffc57600080fd5b600061100a85828601610f6c565b925050602061101b85828601610f96565b9150509250929050565b60006020828403121561103757600080fd5b600061104584828501610f81565b91505092915050565b60006020828403121561106057600080fd5b600061106e84828501610f96565b91505092915050565b6000806040838503121561108a57600080fd5b600061109885828601610f96565b92505060206110a985828601610f6c565b9150509250929050565b6000602082840312156110c557600080fd5b60006110d384828501610fab565b91505092915050565b600080604083850312156110ef57600080fd5b60006110fd85828601610fab565b925050602061110e85828601610f96565b9150509250929050565b611121816114fa565b82525050565b61113081611518565b82525050565b600061114360268361145f565b91507f4f776e61626c653a206e6577206f776e657220697320746865207a65726f206160008301527f64647265737300000000000000000000000000000000000000000000000000006020830152604082019050919050565b60006111a960128361145f565b91507f496e7375666669656e742062616c616e636500000000000000000000000000006000830152602082019050919050565b60006111e960148361145f565b91507f546f6b656e20646f6573206e6f742065786973740000000000000000000000006000830152602082019050919050565b600061122960208361145f565b91507f4f776e61626c653a2063616c6c6572206973206e6f7420746865206f776e65726000830152602082019050919050565b600061126960168361145f565b91507f42616c616e6365206e6f742073756666696369656e74000000000000000000006000830152602082019050919050565b60006112a9600083611454565b9150600082019050919050565b6112bf81611542565b82525050565b60006112d08261129c565b9150819050919050565b60006020820190506112ef6000830184611118565b92915050565b600060608201905061130a6000830186611118565b6113176020830185611118565b61132460408301846112b6565b949350505050565b60006040820190506113416000830185611118565b61134e60208301846112b6565b9392505050565b600060208201905061136a6000830184611127565b92915050565b60006040820190506113856000830185611127565b6113926020830184611118565b9392505050565b600060208201905081810360008301526113b281611136565b9050919050565b600060208201905081810360008301526113d28161119c565b9050919050565b600060208201905081810360008301526113f2816111dc565b9050919050565b600060208201905081810360008301526114128161121c565b9050919050565b600060208201905081810360008301526114328161125c565b9050919050565b600060208201905061144e60008301846112b6565b92915050565b600081905092915050565b600082825260208201905092915050565b600061147b82611542565b915061148683611542565b9250827fffffffffffffffffffffffffffffffffffffffffffffffffffffffffffffffff038211156114bb576114ba61154c565b5b828201905092915050565b60006114d182611542565b91506114dc83611542565b9250828210156114ef576114ee61154c565b5b828203905092915050565b600061150582611522565b9050919050565b60008115159050919050565b6000819050919050565b600073ffffffffffffffffffffffffffffffffffffffff82169050919050565b6000819050919050565b7f4e487b7100000000000000000000000000000000000000000000000000000000600052601160045260246000fd5b611584816114fa565b811461158f57600080fd5b50565b61159b8161150c565b81146115a657600080fd5b50565b6115b281611518565b81146115bd57600080fd5b50565b6115c981611542565b81146115d457600080fd5b5056fea264697066735822122022f360af3bb2ee3002525284e3a653d6fddf15e788162a4836714086a8f1ec1464736f6c63430008000033",
  "immutableReferences": {},
  "source": "pragma solidity ^0.8.0;\n\nimport \"../node_modules/@openzeppelin/contracts/token/ERC20/IERC20.sol\";\nimport \"../node_modules/@openzeppelin/contracts/utils/math/SafeMath.sol\";\nimport \"../node_modules/@openzeppelin/contracts/access/Ownable.sol\";\n\ncontract Wallet is Ownable{\n    using SafeMath for uint256;\n\n    struct Token {\n        bytes32 ticker;  \n        address tokenAddress;\n    }\n    mapping(bytes32 => Token) public tokenMapping;\n    bytes32[] public TokenList;\n    mapping(address => mapping(bytes32 => uint256)) public balances;\n\n    modifier tokenExists(bytes32 ticker) {\n        require(tokenMapping[ticker].tokenAddress != address(0), \"Token does not exist\");\n        _;\n    }\n\n    function addToken(bytes32 ticker, address tokenAddress) onlyOwner external {\n        //save the ticker to our mapping, be equal to new token with a ticker and address\n        tokenMapping[ticker] = Token(ticker, tokenAddress);\n        //just want a list of all the ID's\n        TokenList.push(ticker);\n    }\n\n    function deposit(uint amount, bytes32 ticker) tokenExists(ticker) external{\n        //transfer from msg.sender to us\n        IERC20(tokenMapping[ticker].tokenAddress).transferFrom(msg.sender, address(this), amount);\n        balances[msg.sender][ticker] = balances[msg.sender][ticker].add(amount);\n    }\n\n    function withdraw(uint amount, bytes32 ticker) tokenExists(ticker) external{\n        //make sure the token exists\n        require(balances[msg.sender][ticker] >= amount, \"Balance not sufficient\");\n        //adjust the balances before\n        balances[msg.sender][ticker] = balances[msg.sender][ticker].sub(amount);\n        //input the address (token address for the ticker) and transfer from us to the msg.sender \n        //msg.sender is the rightfull owner of the tokens\n        IERC20(tokenMapping[ticker].tokenAddress).transfer(msg.sender, amount);\n    }\n\n    function depositEth() payable external {\n        balances[msg.sender][bytes32(\"ETH\")] = balances[msg.sender][bytes32(\"ETH\")].add(msg.value);\n    }\n    \n    function withdrawEth(uint amount) external {\n        require(balances[msg.sender][bytes32(\"ETH\")] >= amount,'Insuffient balance'); \n        balances[msg.sender][bytes32(\"ETH\")] = balances[msg.sender][bytes32(\"ETH\")].sub(amount);\n        msg.sender.call{value:amount}(\"\");\n    }\n\n}",
  "sourcePath": "/Users/OllieFrancis/Documents/Ethereum/DexDApp/contracts/wallet.sol",
  "compiler": {
    "name": "solc",
    "version": "0.8.0+commit.c7dfd78e.Emscripten.clang"
  },
  "schemaVersion": "3.3.4",
  "updatedAt": "2021-07-27T11:10:34.964Z",
  "devdoc": {
    "kind": "dev",
    "methods": {
      "owner()": {
        "details": "Returns the address of the current owner."
      },
      "renounceOwnership()": {
        "details": "Leaves the contract without owner. It will not be possible to call `onlyOwner` functions anymore. Can only be called by the current owner. NOTE: Renouncing ownership will leave the contract without an owner, thereby removing any functionality that is only available to the owner."
      },
      "transferOwnership(address)": {
        "details": "Transfers ownership of the contract to a new account (`newOwner`). Can only be called by the current owner."
      }
    },
    "version": 1
  },
  "userdoc": {
    "kind": "user",
    "methods": {},
    "version": 1
  }
}